:020000040000fa
:080000000001040000000000f3
:020000040000fa
:04000800e001000013
:020000040000fa
:04000c00e00100000f
:020000040000fa
:04001000e00100000b
:020000040000fa
:04001400e001000007
:020000040000fa
:04001800e001000003
:020000040000fa
:04001c00e0010000ff
:020000040000fa
:04002000e0010000fb
:020000040000fa
:04002400e0010000f7
:020000040000fa
:04002800e0010000f3
:020000040000fa
:04002c00e0010000ef
:020000040000fa
:04003000e0010000eb
:020000040000fa
:04003400c8010000ff
:020000040000fa
:04003800e0010000e3
:020000040000fa
:04003c00e0010000df
:020000040000fa
:04004000e0010000db
:020000040000fa
:04004400e0010000d7
:020000040000fa
:04004800e0010000d3
:020000040000fa
:04004c00e0010000cf
:020000040000fa
:04005000e0010000cb
:020000040000fa
:04005400e0010000c7
:020000040000fa
:04005800e0010000c3
:020000040000fa
:04005c00e0010000bf
:020000040000fa
:04006000e0010000bb
:020000040000fa
:04006400e0010000b7
:020000040000fa
:04006800e0010000b3
:020000040000fa
:04006c00e0010000af
:020000040000fa
:04007000e0010000ab
:020000040000fa
:04007400e0010000a7
:020000040000fa
:04007800e0010000a3
:020000040000fa
:04007c00e00100009f
:020000040000fa
:04008000e00100009b
:020000040000fa
:04008400e001000097
:020000040000fa
:04008800e001000093
:020000040000fa
:04008c00e00100008f
:020000040000fa
:04009000e00100008b
:020000040000fa
:04009400e001000087
:020000040000fa
:04009800e001000083
:020000040000fa
:04009c00e00100007f
:020000040000fa
:0400a000e00100007b
:020000040000fa
:0400a400e001000077
:020000040000fa
:0400a800e001000073
:020000040000fa
:0400ac00e00100006f
:020000040000fa
:0400b000e00100006b
:020000040000fa
:0400b400e001000067
:020000040000fa
:0400b800e001000063
:020000040000fa
:0400bc00e00100005f
:020000040000fa
:0400c000e00100005b
:020000040000fa
:0400c400e001000057
:020000040000fa
:0400c800e001000053
:020000040000fa
:0400cc00e00100004f
:020000040000fa
:0400d000e00100004b
:020000040000fa
:0400d400e001000047
:020000040000fa
:0400d800e001000043
:020000040000fa
:04010800e001000012
:020000040000fa
:04010c00e00100000e
:020000040000fa
:04011000e00100000a
:020000040000fa
:04011400e001000006
:020000040000fa
:04011800e001000002
:020000040000fa
:04011c00e0010000fe
:020000040000fa
:04012000e0010000fa
:020000040000fa
:04012400e0010000f6
:020000040000fa
:04012800e0010000f2
:020000040000fa
:04012c00e0010000ee
:020000040000fa
:04013000e0010000ea
:020000040000fa
:04013400c8010000fe
:020000040000fa
:04013800e0010000e2
:020000040000fa
:04013c00e0010000de
:020000040000fa
:04014000e0010000da
:020000040000fa
:04014400e0010000d6
:020000040000fa
:04014800e0010000d2
:020000040000fa
:04014c00e0010000ce
:020000040000fa
:04015000e0010000ca
:020000040000fa
:04015400e0010000c6
:020000040000fa
:04015800e0010000c2
:020000040000fa
:04015c00e0010000be
:020000040000fa
:04016000e0010000ba
:020000040000fa
:04016400e0010000b6
:020000040000fa
:04016800e0010000b2
:020000040000fa
:04016c00e0010000ae
:020000040000fa
:04017000e0010000aa
:020000040000fa
:04017400e0010000a6
:020000040000fa
:04017800e0010000a2
:020000040000fa
:04017c00e00100009e
:020000040000fa
:04018000e00100009a
:020000040000fa
:04018400e001000096
:020000040000fa
:04018800e001000092
:020000040000fa
:04018c00e00100008e
:020000040000fa
:04019000e00100008a
:020000040000fa
:04019400e001000086
:020000040000fa
:04019800e001000082
:020000040000fa
:04019c00e00100007e
:020000040000fa
:0401a000e00100007a
:020000040000fa
:0401a400e001000076
:020000040000fa
:0401a800e001000072
:020000040000fa
:0401ac00e00100006e
:020000040000fa
:0401b000e00100006a
:020000040000fa
:0401b400e001000066
:020000040000fa
:0401b800e001000062
:020000040000fa
:0401bc00e00100005e
:020000040000fa
:0401c000e00100005a
:020000040000fa
:0401c400e001000056
:020000040000fa
:0401c800e001000052
:020000040000fa
:0401cc00e00100004e
:020000040000fa
:0401d000e00100004a
:020000040000fa
:0401d400e001000046
:020000040000fa
:0401d800e001000042
:020000040000fa
:100200000f8520000eff20000e0188000000000076
:10021000000020000000e000020032000001200089
:100220002002880014000700670007000000e000bb
:1002300003003a0080fd2100010020000200370089
:100240000000200001002000810f7000010032003a
:1002500014000700000020000000e000020032004f
:100260000000020000000000b81e020000000000b4
:100270000040da000000fe004440a900e06a2000cf
:100280000000e0000300320000002000a001880010
:100290004440a800000006008a1f78008b1f7800e9
:1002a0000000060091018800800478000000eb0047
:1002b0001a003700e284440032a0b4009905ba0065
:1002c000e284440032a0b4009906ba00e2844400fb
:1002d00032a0b4000006eb00476fde00fd07b2005d
:1002e000636ce10003003a00ebff07000000eb0045
:1002f0000a003700606ce10004003a00005deb008a
:100300008b05e900fdff3e00040037006168e10055
:10031000010032000086eb000b00070019c7ba008d
:100320001905ba000e04e00003003a000a00e000dc
:10033000e0ff3a0000000600fe07b2009e018800c0
:100340008a047800f5ff3700395dba008b05e900b3
:100350000c003200295dba008b05e900080032006c
:100360000c00e00003003a00e284440032a0b40034
:10037000f5ff370019ddba008b05e900faff3a00f6
:100380008904e800e184440032a0b40000000600c3
:10039000801f78000000fa008460a90031c8bf0007
:1003a0000004e00003003a00b01680000020a20024
:1003b000b01688000080fa004f0078000040060068
:0c03c0000040da000000fe000000050014
:020000040000fa
:1003cc004101000041020000410300004104000013
:1003dc0041050000410600004107000041080000f3
:1003ec0041090000410a0000410b0000410c0000d3
:1003fc00410d0000410e0000410f000041100000b3
:10040c0041110000420100004202000042030000c2
:10041c0042040000420500004206000042070000b2
:10042c004208000042090000420a0000420b000092
:10043c00420c0000420d0000420e0000420f000072
:10044c004210000042110000430100004302000072
:10045c004303000043040000430500004306000072
:10046c00430700004308000043090000430a000052
:10047c00430b0000430c0000430d0000430e000032
:10048c00430f000043100000431100004401000022
:10049c004402000044030000440400004405000032
:1004ac004406000044070000440800004409000012
:1004bc00440a0000440b0000440c0000440d0000f2
:1004cc00440e0000440f00004410000044110000d2
:1004dc0045010000450200004503000045040000f2
:1004ec0045050000450600004507000045080000d2
:1004fc0045090000450a0000450b0000450c0000b2
:10050c00450d0000450e0000450f00004510000091
:10051c0046010000460200004603000046040000ad
:10052c00460500004606000046070000460800008d
:10053c0046090000460a0000460b0000460c00006d
:10054c00460d0000460e0000460f0000461000004d
:10055c004701000047020000470300004704000069
:10056c004705000047060000470700004708000049
:10057c0047090000470a0000470b0000470c000029
:10058c00470d0000470e0000470f00004710000009
:10059c004401000044020000440300004404000035
:1005ac004405000044060000440700004408000015
:1005bc0044090000440a0000440b0000440c0000f5
:1005cc00440d0000440e0000440f000044100000d5
:1005dc0044110000470100004702000047030000df
:1005ec0047040000470500004706000047070000cd
:1005fc004708000047090000470a0000470b0000ad
:10060c00470c0000470d0000470e0000470f00008c
:10061c0047100000430100004302000043030000a8
:10062c00430400004305000043060000430700009c
:10063c004308000043090000430a0000430b00007c
:10064c00430c0000430d0000430e0000430f00005c
:10065c004310000043110000460100004602000058
:10066c004603000046040000460500004606000054
:10067c00460700004608000046090000460a000034
:10068c00460b0000460c0000460d0000460e000014
:10069c00460f00004610000042010000420200001c
:1006ac004203000042040000420500004206000024
:1006bc00420700004208000042090000420a000004
:1006cc00420b0000420c0000420d0000420e0000e4
:1006dc00420f0000421000004211000045010000d2
:1006ec0045020000450300004504000045050000dc
:1006fc0045060000450700004508000045090000bc
:10070c00450a0000450b0000450c0000450d00009b
:10071c00450e0000450f000045100000410100008f
:10072c0041020000410300004104000041050000ab
:10073c00410600004107000041080000410900008b
:10074c00410a0000410b0000410c0000410d00006b
:10075c00410e0000410f000041100000411100004b
:10076c0030310000323300003435000036370000e1
:10077c003839000041420000434400004546000067
:10078c00000d00000a0000004101000041020000c1
:10079c004103000041040000410500004106000037
:1007ac00410700004108000041090000410a000017
:1007bc00410b0000410c0000410d0000410e0000f7
:1007cc00410f0000411000004111000042010000e7
:1007dc0042020000420300004204000042050000f7
:1007ec0042060000420700004208000042090000d7
:1007fc00420a0000420b0000420c0000420d0000b7
:10080c00420e0000420f0000421000004211000096
:10081c0043010000430200004303000043040000b6
:10082c004305000043060000430700004308000096
:10083c0043090000430a0000430b0000430c000076
:10084c00430d0000430e0000430f00004310000056
:10085c004311000044010000440200004403000066
:10086c004404000044050000440600004407000056
:10087c004408000044090000440a0000440b000036
:10088c00440c0000440d0000440e0000440f000016
:10089c004410000044110000450100004502000016
:1008ac004503000045040000450500004506000016
:1008bc00450700004508000045090000450a0000f6
:1008cc00450b0000450c0000450d0000450e0000d6
:1008dc00450f0000451000004601000046020000d4
:1008ec0046030000460400004605000046060000d2
:1008fc00460700004608000046090000460a0000b2
:10090c00460b0000460c0000460d0000460e000091
:10091c00460f00004610000047010000470200008f
:10092c00470300004704000047050000470600008d
:10093c00470700004708000047090000470a00006d
:10094c00470b0000470c0000470d0000470e00004d
:10095c00470f00004710000080200000000000003e
:10096c00401000000000000000000000802000008b
:10097c00000000004010000001000000000000001a
:10098c000100000000000000010500000002000052
:10099c000004000001030000030100000406000035
:1009ac000200000005070000434f00004e4e0000ff
:1009bc002c000000434f00004e4e00002c4a00005b
:1009cc00312e0000002c00004a3200002e000000e6
:1009dc0054450000535400005f5300005441000084
:1009ec00525400002c0000005041000053530000f2
:1009fc005f4100005f53000054410000525400005e
:100a0c000d0a000000450000525200004f52000039
:100a1c002c490000324300005f540000494d000097
:100a2c00454f0000555400005f500000415300003a
:100a3c00535f0000410d00000a000000504100000f
:100a4c00535300005f4100005f4400004f4e000014
:100a5c00452c00000050000041530000535f000083
:100a6c00425f00005354000041520000540d00003e
:100a7c000a00000045520000524f0000522c0000aa
:100a8c0049320000435f0000544900004d4500000e
:100a9c004f550000545f00005041000053530000bc
:100aac005f4200000d0a000000500000415300009e
:100abc00535f0000425f0000444f00004e450000b1
:100acc002c00000054450000535400005f4400000b
:100adc004f4e00004500000057410000524e0000f0
:100aec002c50000041530000535f0000415f000098
:100afc00425f00004d490000534d0000415400007e
:100b0c00434800000d0a000000450000525200004e
:100b1c004f5200002c490000324300005f5400008b
:100b2c00494d0000454f0000555400000d0a0000cf
:100b3c000044000045420000554700005f53000090
:100b4c0054410000525400000d0a0000005a0000ed
:100b5c00415f00004c410000542c00000044000098
:100b6c0045420000554700002c490000324300006c
:100b7c005f52000045410000445f000045520000f8
:100b8c00525f000055310000390d00000a000000d2
:100b9c0055310000395f00004f5500005430000003
:100bac002c0000004445000042550000472c00007a
:100bbc0049320000435f00005245000041440000f0
:100bcc005f450000525200005f55000032300000bb
:100bdc000d0a000000550000323000005f4f00008d
:100bec0055540000302c0000004400004941000026
:100bfc00475f0000434f00004e4e00002c000000e9
:100c0c004445000042550000472c000049320000ca
:100c1c00435f000045520000524f0000520d00008f
:100c2c000a0000004445000042550000472c00001b
:100c3c00434f00004e4e00005f4600004f55000031
:100c4c004e4400002c0000004445000042550000ba
:100c5c00475f0000444f00004e4500000d0a0000a5
:100c6c00004a0000494700005f4400004941000071
:100c7c00475f00005354000041520000540d000027
:100c8c000a0000004a490000475f00004449000088
:100c9c00414700005f490000324300005f450000ff
:100cac00525200002c640000727600003d000000df
:100cbc0044490000414700005f4f00004b2c0000ee
:100ccc00002c0000636f00006e6e00003d00000001
:100cdc0044490000414700005f46000041490000c4
:100cec004c2c0000002c00006d6900003d00000041
:100cfc002c630000683d0000002c00004c410000fb
:100d0c00543d0000002c000049320000435f0000fd
:100d1c0045520000520d00000a0000002c4f00004c
:100d2c0055540000303d0000002c00004f550000d1
:100d3c00543100003d0000005357000045450000b1
:100d4c00505f00005354000041520000542c00002e
:100d5c006d6900003d000000535700004545000040
:100d6c00505f000048490000542c000063680000ec
:100d7c003d0000002c4a0000323d000000530000f2
:100d8c0057450000455000005f4900003243000009
:100d9c005f450000525200002c630000683d0000cb
:100dac000053000057450000455000005f4500000f
:100dbc004e4400002c6d0000693d0000004a00000c
:100dcc00494700005f44000049410000475f0000b4
:100ddc004a3200005f53000054410000525400009e
:100dec000d0a0000004a0000494700005f44000063
:100dfc0049410000475f00004a3200005f49000093
:100e0c00324300005f450000525200002c64000089
:100e1c00727600003d00000044490000414700008c
:100e2c005f4a0000325f00004f4b00002c000000b6
:100e3c0044490000414700005f4a0000325f000057
:100e4c0046410000494c00002c00000053570000a4
:100e5c0045450000505f00004a3200005f5300001f
:100e6c0054410000525400002c6d0000693d0000fc
:100e7c000053000057450000455000005f4a000039
:100e8c00325f000048490000542c000063680000e9
:100e9c003d0000002c4a0000313d000000530000d2
:100eac0057450000455000005f4a0000325f0000cb
:100ebc0049320000435f000045520000522c0000f4
:100ecc00636800003d0000005357000045450000da
:100edc00505f00004a3200005f4500004e440000a5
:100eec002c6d0000693d0000004a000049470000dd
:100efc005f44000049410000475f0000444f000080
:100f0c004e4500002c6a0000313d0000002c000012
:100f1c006a3200003d0000005345000052490000b9
:100f2c00414c00002c00000049320000435f0000df
:100f3c0053430000414e00005f5300005441000039
:100f4c00525400000d0a00000042000055530000ee
:100f5c00312c000055310000393a00000d0a000018
:100f6c000049000032430000315f00005052000085
:100f7c004f420000452c000030780000004100007a
:100f8c00434b0000004e0000414300004b000000aa
:100f9c0042550000533200002c5500003230000046
:100fac003a0d00000a0000004932000043320000f4
:100fbc005f500000524f0000424500002c300000f2
:100fcc007800000049320000435f000053430000ea
:100fdc00414e00005f4400004f4e0000450d0000e4
:100fec000a0000005645000052530000494f000013
:100ffc004e2c0000342e0000313000000d0a000091
:10100c00005000004f4e0000470d00000a00000089
:10101c004a320000473000005f530000544100008a
:10102c00525400000d0a0000004a00003247000034
:10103c00302c0000727000003d0000002c4a0000b3
:10104c00312e0000004a000032470000305f0000e3
:10105c00454e0000440d00000a000000464400000c
:10106c0049410000475f000053540000415200000a
:10107c00540d00000a0000004644000049410000e5
:10108c00472c00004a3100002e0000002c7200009a
:10109c00703d0000002c00004e4f00005f4300002c
:1010ac004f4e00004e0d00000a00000046440000a8
:1010bc0049410000475f0000454e0000440d000010
:1010cc000a00000045520000524f0000522c000054
:1010dc0049320000435f0000494e000049540000b3
:1010ec005f460000414900004c0d00000a00000062
:1010fc005445000053540000455200005f5200005c
:10110c0045410000445900000d0a00000050000049
:0c111c00494e0000530000005400000089
:020000040000fa
:101128000600fa00200798000000eb00000f780086
:101138000b0037000000eb00100798000300370091
:101148001e0090000000e800100798009e00900024
:10115800105c2000808f5000f9ff36001e0fe80059
:101168002e0090009e007800808f5000f1ff39001b
:101178000080fa00000006000400fa00100798003a
:101188000000eb00000f7800020037000e00090095
:101198001e0fe8001e0090009e007800808f50000f
:1011a800faff39000080fa00000006000000fa008b
:1011b8000003200020088800f00727001008880096
:1011c8000021ef00a1048000f0ff280000806000eb
:1011d80000e0a000a00488008460a9008c60a8003a
:1011e80005e1a8000080fa00000006000000fa00ef
:1011f80070002000f010880000002800b01088005f
:1012080000402000c01088000080fa00000006009e
:101218000200fa00004f780000000000c1108000b2
:1012280000202000008060000000e000fbff3a0082
:101238001e4078000080fb00d01088000080fa0073
:10124800000006000200fa00000f780004003700d2
:101258001e007800104078001e0fe800ecff070021
:101268001e007800104078000004e000f8ff3a0003
:101278000080fa00000006000a00fa004007980003
:101288000040eb00104798004e0090000000e0007e
:1012980017003a0000c3b300ddff07002400370041
:1012a8001e4090008081fb004e019000d0cc2c00a5
:1012b8000010b8004308de006a00b900000078009a
:1012c800000051008040780003004700214098004a
:1012d8001e4090000040e80010479800ce009000a3
:1012e800d0cc2c000008b8004308de004007980066
:1012f8004e0090000000e000e9ff3a009e40900098
:10130800014f7800070037001e80fb000000e9004d
:1013180000004700204090000043b000bcff0700d9
:101328001e4fe9001e4078000004e000f6ff3a0076
:101338000080fa00000006000400fa002047980028
:10134800603b2800000f78002e4090000080fb00d2
:101358004400de00004078000080fb006f00600061
:101368001e00400010407800a9ff07002e409000a2
:101378000080fb006f0060001e00400010407800f5
:10138800a3ff07000080fa00000006000400fa002e
:10139800000f7800110798001e007800a9ff0700c9
:1013a800c0c2b3009aff07001e009000b2ff0700fa
:1013b800703c2800a3ff07000080fa000000060028
:1013c8000a00fa006047980041079800ee40900034
:1013d80030c7b30080cf5000080036004e009000a0
:1013e800f1c3b300014878004e0090000000e80007
:1013f8008040eb0001487800450037006e409000bf
:101408000080fb0000004000611e28006140780059
:10141800804078004e009000014878006e409000af
:101428000080fb0000004000711e2800614f78001a
:101438000040eb00104798001e4090008081fb00a0
:101448001e81fb00d0cc2c000010b8004308de0041
:101458006a00b90000007800000051008040780060
:1014680003004700314098001e4090000040e8000b
:10147800104798009e80fb00d0cc2c000008b800d4
:101488004308de00004f78001e4078000004e000aa
:10149800e9ff3a009e40900021479800120037006b
:1014a8001e4090008080fb002e4090000080fb00d2
:1014b800008050000000e800ce009000008040004e
:1014c800ae4090008180fb008100e9008100470068
:1014d800b14090000143b000014878002e409000d0
:1014e8000040e900204798002e4090000004e000ea
:1014f800ebff3a001e4090000080fb000000e8006f
:10150800ce009000008040008040eb000148780049
:101518000080fa00000006000a00fa006047980000
:1015280041079800ee40900030c7b30080cf5000cc
:10153800080036004e009000f1c3b300014878005f
:101548004e0090000000e8008040eb000148780061
:10155800450037006e4090000080fb00000040000e
:10156800a13c280061407800804078004e0090003f
:10157800014878006e4090000080fb0000004000a9
:10158800b13c2800614f78000040eb0010479800fc
:101598001e4090008081fb001e81fb00d0cc2c00f7
:1015a8000010b8004308de006a00b90000007800a7
:1015b8000000510080407800030047003140980047
:1015c8001e4090000040e800104798009e80fb00f5
:1015d800d0cc2c000008b8004308de00004f78008b
:1015e8001e4078000004e000e9ff3a009e409000a9
:1015f80021479800120037001e4090008080fb00b1
:101608002e4090000080fb00008050000000e800a1
:10161800ce00900000804000ae4090008180fb002a
:101628008100e90081004700b14090000143b0000b
:10163800014878002e4090000040e90020479800bb
:101648002e4090000004e000ebff3a001e4090009e
:101658000080fb000000e800ce0090000080400001
:101668008040eb00014878000080fa000000060086
:101678000000fa00300220002010880007e2a800cd
:101688000080fa00000006000200fa000000eb00eb
:10169800000f780032c8bf000004e0000f003a00d5
:1016a8000602a800080037001e0fe80000532700b4
:1016b8009e007800808f50000300360010c0b300f1
:1016c80032e8b70006003700301080006100600083
:1016d8000000e000f4ff3a000100370000000000bd
:1016e8000080fa00000006000200fa000000eb008b
:1016f800000f780032c8bf000004e0000f003a0075
:101708000642a800080037001e0fe8000053270013
:101718009e007800808f50000300360010c0b30090
:1017280032e8b7000600370030108000640060001f
:101738000000e000f4ff3a0001003700000000005c
:101748000080fa00000006000400fa002047980014
:101758000000eb00000f780032c8bf000004e00072
:1017680021003a002e4090000080fb0010108800f5
:10177800080037001e0fe800005327009e0078007d
:10178800808f50000300360010c0b30032e8b70065
:101798001600370040108000610060000000e00083
:1017a800f4ff3a000000eb00000f78000800370053
:1017b8001e0fe800005327009e007800808f50001d
:1017c8000300360010c0b30032e8b7000700370046
:1017d8004110800000002400008060000000e0004c
:1017e800f3ff3a0001003700000000000080fa0013
:1017f800000006000600fa00404798003268ef0033
:10180800a1ff070032c8bf000004e0000300320057
:101818003268ef000040eb00350037004e40900082
:10182800004040000080fb00101088000000eb0022
:10183800000f7800080037001e0fe800005327004b
:101848009e007800808f50000300360010c0b3005f
:1018580032e8b700040037004010800061006000e3
:101868000000e000f4ff3a000000eb00000f7800f1
:10187800080037001e0fe800005327009e0078007c
:10188800808f50000300360010c0b30032e8b70064
:10189800050037004110800000002400008060002f
:1018a8000000e000f3ff3a0032c8bf000004e00087
:1018b80007003a0041108000000028000080600006
:1018c8000000e00002003a0010c0b3000100370039
:1018d8000040eb00204798003268ef0082ff0700c5
:1018e8003268ef002003200023fe07002e409000fe
:1018f8000080fa00000006000000fa00e2c2a90019
:10190800dec2a800d602a800d202a900a0002000ca
:1019180019fe07000080fa00000006000000fa0027
:1019280033c8bf000004e0000e003a00dec2a80081
:10193800d602a800d202a900500020000efe07001f
:10194800e2c2a900dec2a900500020000afe07007a
:10195800d602a900d202a9005000200006fe070006
:1019680001003700000000000080fa0000000600b7
:101978000000fa0033c8bf000004e0000c003a0081
:10198800e2c2a900dec2a90020002000fafd07007b
:10199800d602a800d202a90050002000f6fd0700d8
:1019a800dec2a80050002000f3fd07000100370048
:1019b800000000000080fa00000006000000fa00a5
:1019c80033c8bf000004e00010003a00dec2a800df
:1019d80020002000e8fd0700d602a800d202a900d6
:1019e80050002000e4fd0700e2c2a900dec2a90001
:1019f80050002000e0fd0700d602a900d202a9008d
:101a080020002000dcfd0700010037000000000076
:101a18000080fa00000006000400fa002047980041
:101a280033c8bf000004e0002e003a000040eb007d
:101a3800004f7800150037002e4090000004e000a9
:101a480002003d00dec2a80002003700e2c2a90081
:101a5800dec2a90020002000c7fd0700d602a800aa
:101a6800d202a90050002000c3fd0700d602a90039
:101a7800d202a90020002000bffd07002e409000e0
:101a880000404000204798001e4fe8001e407800a4
:101a9800e74f5000e8ff3600dec2a8002000200013
:101aa800b5fd0700d602a800d202a9003000200028
:101ab800b1fd0700011780000004200000806000cd
:101ac8000000e0000200320010c0b30033e8b700a5
:101ad800d602a900d202a90020002000a6fd070016
:101ae80001003700000000000080fa000000060036
:101af8000200fa000040eb001047980033c8bf000e
:101b08000004e0000200320000c0eb0029003700aa
:101b1800dec2a8000040eb00004f78001600370036
:101b2800d602a800d202a9005000200092fd0700aa
:101b38001e4090000040400080407800021780005e
:101b480000042000000061000000e00002003200f4
:101b580010c0b300010037000040eb0000c0700067
:101b680010479800d602a900d202a9002000200040
:101b780081fd07001e4fe8001e407800e74f500027
:101b8800e7ff3600dec2a800200020007afd07002b
:101b9800d602a800d202a9005000200076fd070056
:101ba800d602a900d202a9002000200072fd070079
:101bb8001e4090000080fa00000006000400fa00b1
:101bc800204798003368ef0054ff070033c8bf0070
:101bd8000004e000030032003368ef000040eb002f
:101be8000e0037002e409000004040008aff07009a
:101bf80033c8bf000080fb000000e9004f00de0092
:101c0800004f78003368ef0059ff07003368ef0092
:101c18002003200058fd07001e4078000080fa00cd
:101c2800000006000200fa000000eb00000f780038
:101c380032c8bf000004e0000f003a000622a800e6
:101c4800080037001e0fe800005327009e007800a8
:101c5800808f50000300360010c0b30032e8b70090
:101c68000600370030108000620060000000e000cd
:101c7800f4ff3a0001003700000000000080fa007d
:101c8800000006000200fa000000eb00000f7800d8
:101c980032c8bf000004e0000200320000c0eb00c0
:101ca800230037000662a800090037001e0fe8006d
:101cb800005327009e007800808f500004003600f3
:101cc80010c0b30032e8b70000c0eb0018003700be
:101cd80040108000620060000000e000f3ff320066
:101ce80006a2a8000682a8000000eb00000f7800fa
:101cf800090037001e0fe800005327009e007800f7
:101d0800808f50000400360010c0b30032e8b700de
:101d180000c0eb0006003700301080007000600043
:101d28000000e000f3ff3a00001080000040780057
:101d38000080fa00000006000400fa00204798001e
:101d48003147980050fe07002e40900000404000a8
:101d58007dfe07003e4090007bfe0700b1ff0700b4
:101d68002e409000004040000004a00076fe0700ce
:101d7800c4ff0700004f78005bfe07001e40780094
:101d88000080fa00000006000400fa00004f780006
:101d980011479800224798003bfe07001e40780034
:101da8000040400068fe07001e40900066fe0700e5
:101db8002e40900064fe07004bfe07000080fa00ea
:101dc800000006000400fa00004f78001147980050
:101dd8002247980032c8bf000004e0000f003a0014
:101de800cefe07001e407800004040000aff0700b2
:101df8001e40900008ff07002e40900006ff0700d5
:101e0800dbfe070033c8bf000004e0000400320016
:101e180010c0b30032e8b70001003700000000002e
:101e28000080fa00000006000400fa00204798002d
:101e38003147980032c8bf000004e00002003200b9
:101e480000c0eb0014003700b4fe07002e409000dd
:101e580000404000f0fe07003e409000eefe070004
:101e6800d6fe07002e409000004040000004a0006d
:101e7800e9fe07001eff0700004f7800bcfe0700c0
:101e880033c8bf000004e0000200320010c0b300f5
:101e980032e8b7001e4078000080fa000000060013
:101ea8000000fa000041eb0061c0b30000c2b300bb
:101eb800b5ff07000041eb0071c0b30000c2b300da
:101ec800b1ff07000041eb0061c0b30040c2b3009e
:101ed800bcff07000041eb0071c0b30040c2b30073
:101ee800b8ff070000c0eb004ce8b70000c0eb00eb
:101ef8004de8b70000c0eb004ee8b70000c0eb00ab
:101f08004fe8b7004cc8bf000041780021c0b300bb
:101f180000c2b3009cff07004dc8bf000041780015
:101f280031c0b30000c2b30097ff07004ec8bf001e
:101f38000041780021c0b30040c2b300a1ff0700f0
:101f48004fc8bf000041780031c0b30040c2b300a1
:101f58009cff07000080fa00000006000000fa005d
:101f680000c0eb004ce8b70000c0eb004de8b7003c
:101f780000c0eb004ee8b70000c0eb004fe8b70028
:101f88004cc8bf000041780021c0b30000c2b300b4
:101f98007dff07004dc8bf000041780031c0b30085
:101fa80000c2b30078ff07004ec8bf0000417800a8
:101fb80021c0b30040c2b30082ff07004fc8bf0072
:101fc8000041780031c0b30040c2b3007dff070074
:101fd8000080fa00000006000200fa00004f7800b6
:101fe8001147980000c0eb004ce8b70000c0eb00b8
:101ff8004de8b700c18420009140780000cfb300bd
:1020080080c060001e4090006f40600000c07000fb
:102018004ce8b7001e80fb00214b28006140780087
:102028000004e000080032001e80fb00214b28005d
:102038006140780080c0ea004cc8bf0000c0600062
:102048004ce8b700070037001e80fb00a14b2800b2
:102058006140780080c0ea004dc8bf0000c0600041
:102068004de8b7004cc8bf000041780021c0b3005c
:1020780000c2b30044ff07004dc8bf00004178000c
:1020880031c0b30000c2b3003fff07000080fa0070
:10209800000006000200fa00004f7800114798007f
:1020a80000c0eb004ee8b70000c0eb004fe8b700f7
:1020b800e18420009140780000cfb30080c0600028
:1020c8001e4090006f40600000c070004ee8b700ee
:1020d8001e80fb00214b2800614078000004e000ce
:1020e800080032001e80fb00214b28006140780068
:1020f80080c0ea004ec8bf0000c060004ee8b700cc
:10210800070037001e80fb00a14b280061407800c3
:1021180080c0ea004fc8bf0000c060004fe8b700a9
:102128004ec8bf000041780021c0b30040c2b300d0
:1021380024ff07004fc8bf000041780031c0b3003a
:1021480040c2b3001fff07000080fa00000006002d
:102158000600fa00004f780011079800220798003f
:102168001e80fb004400de00804078001e009000c6
:10217800014878001e417800ef4061002e00900071
:10218800014878000080fa00000006000400fa0008
:10219800204798002e4090000080fb00a14c2800aa
:1021a800614078000080fb00110020000008dd007d
:1021b800000f78002e4090000080fb00214c280082
:1021c800614078000004e000090032009e80ea00c7
:1021d800f016800000806000f01688009e80ea00fb
:1021e8001017800000806000101788000800370072
:1021f8009e80ea00c016800000806000c01688003b
:102208009e80ea00e016800000806000e0168800ea
:102218000080fa00000006000400fa002047980039
:102228002e4090000080fb00a14c280061407800ff
:102238000080fb00110020000008dd00000f78007e
:102248002e4090000080fb00214c2800614078005f
:102258000004e00004003200f01680001e00700048
:10226800f016880003003700c01680001e007000ba
:10227800c01688000080fa00000006000800fa0076
:10228800604798006e4090000080fb00a14c280039
:10229800614f78001e80fb00110020000008dd005f
:1022a800100798006e4090000080fb00214c280029
:1022b800614078000004e00022003200f11680003e
:1022c8001e00900001007000f01688002003200016
:1022d800a9fb0700011780001e80fb000008de0034
:1022e800004078006140600040479800a00020004e
:1022f800a1fb0700011780001e80fb000008de001c
:10230800004078006140600050479800ce4090003f
:102318005e40900080cf500002003a004e4090008e
:10232800290037002003200093fb070001178000d5
:102338001e80fb000008de0000407800614060005d
:1023480021003700c11680001e00900001007000b7
:10235800c01688002003200087fb0700d1168000e4
:102368001e80fb000008de0000407800614060002d
:1023780040479800a00020007ffb0700d11680008e
:102388001e80fb000008de0000407800614060000d
:1023980050479800ce4090005e40900080cf50009b
:1023a80002003a004e40900007003700200320004a
:1023b80071fb0700d11680001e80fb000008de00bc
:1023c80000407800614060000080fa0000000600cc
:1023d8000400fa00204798002e4090000080fb007f
:1023e800214d2800614078000080fb00110020008a
:1023f8000008dd00000f7800401580001e00700006
:10240800401588009e80ea00301680000080600039
:10241800301688009e80ea00501680000080600018
:10242800501688000080fa00000006000200fa003a
:10243800004f78001e80fb00214d28006140780085
:102448000080fb00110020008008dd0030168000ad
:1024580001007000301688000080fa0000000600b5
:102468000800fa00604798006e4090000080fb006a
:10247800214d2800614f78001e80fb0011002000cc
:102488000008dd0010079800411580001e0090002c
:102498000100700040158800311680001e00900071
:1024a80001007000301688002003200032fb07006e
:1024b800411680001e80fb000008de000040780006
:1024c8006140600040479800a00020002afb0700f8
:1024d800411680001e80fb000008de0000407800e6
:1024e8006140600050479800ce4090005e409000e8
:1024f80080cf500002003a004e409000070037009d
:10250800200320001cfb0700411680001e80fb00f2
:102518000008de0000407800614060000080fa009a
:10252800000006001600fa00405798000000eb0073
:1025380010079800e5004700640047000101780093
:10254800800078004e50900001ff0700de409000a8
:102558004e409000a0fe07004e4090000bff070081
:102568004006200004fb0700680047008000780050
:102578004e50900092fb07000040eb00004f78009f
:102588002400370032c8bf000004e00026003a00eb
:10259800e7004700660047000101780080007800e6
:1025a8001e407800eafe0700a0002000f2fa0700ab
:1025b800fe4090006e409000b6fe07006e4090000e
:1025c800a7ff07000004e00011003a006e00470072
:1025d800800078001e407800cffb0700a04d28003f
:1025e80018fb07006800470016fb0700c0c2b300cd
:1025f80007fb07006e00470012fb0700703c28002d
:1026080010fb07001e0090000000e800100798006b
:102618001e4fe80030c7b3009e40780080cf5000be
:10262800d8ff360001003700000000004e4090003f
:10263800f9fe070049fe07001e0090000080fa001e
:10264800000006001600fa00405798000000eb0052
:1026580010079800e5004700640047000101780072
:10266800800078004e509000b9fe0700de409000d0
:102678004e40900058fe07004e409000c3fe0700f1
:10268800800c2000bcfa0700680047008000780032
:102698004e5090004afb07000040eb00004f7800c6
:1026a8002400370032c8bf000004e00026003a00ca
:1026b800e7004700660047000101780080007800c5
:1026c8001e407800a2fe0700fe4090006e40900079
:1026d80070fe070040062000a7fa07006e40900031
:1026e8005fff07000004e00011003a006e00470099
:1026f800800078001e40780087fb0700004e280005
:10270800d0fa070068004700cefa0700904e28006c
:10271800ccfa07006e004700cafa0700703c280090
:10272800c8fa07001e0090000000e8001007980093
:102738001e4fe80030c7b3009e40780080cf50009d
:10274800d8ff360001003700000000004e4090001e
:10275800b1fe070001fe07001e0090000080fa008d
:10276800000006001600fa00405798000000eb0031
:1027780010079800e5004700640047000101780051
:10278800800078004e50900071fe0700de409000f7
:102798004e4090003ffe07004e4090000cff07009f
:1027a800800c200074fa07000040eb00004f78000e
:1027b8002800370032c8bf000004e0002a003a00b1
:1027c800e7004700660047000101780080007800b4
:1027d8001e4078005efe0700fe4090006e409000ac
:1027e800fdfd07004006200063fa07006e409000d8
:1027f800a2fe07000004e00015003a006800470048
:10280800800078001e407800edfa07006e0047004f
:10281800800078004e5090003ffb0700004e2800d3
:1028280088fa07006800470086fa0700904e2800db
:1028380084fa07006e00470082fa0700703c2800ff
:1028480080fa07001e0090000000e80010079800ba
:102858001e4fe80030c7b3009e40780080cf50007c
:10286800d4ff360001003700000000004e40900001
:10287800eefe0700b9fd07001e0090000080fa0078
:10288800000006000600fa000000eb0010079800a0
:102898000000eb00200798003268ef003368ef0073
:1028a800e04e280067fa07004083200065fa070019
:1028b800703c280063fa0700a04f280061fa07005f
:1028c8000040eb00004f78000900370032c8bf0015
:1028d8000004e0000b003a001e40780059ff070092
:1028e8009e00900000804000100798001e4fe800ee
:1028f80030c7b3009e40780080cf5000f3ff360009
:10290800010037000000000032c8bf000004e000ea
:1029180006003200905028004afa0700d1a2a80009
:102928003268ef003368ef00360037004052280065
:1029380044fa07001e0090004ffa0700703c280078
:1029480040fa0700105328003efa07000040eb0049
:10295800004f78000900370032c8bf000004e000cb
:102968000b003a001e4078007eff0700ae00900082
:1029780000804000200798001e4fe80030c7b300d1
:102988009e40780080cf5000f3ff360001003700ea
:102998000000000032c8bf000004e000060032005a
:1029a8000054280027fa0700d1a2a8003268ef00d7
:1029b8003368ef0013003700b055280021fa0700ec
:1029c8002e0090002cfa0700703c28001dfa070022
:1029d8009e009000805628006cfa07009e00900028
:1029e8002e009000808f500003003a00cb02a80010
:1029f800d1a2a900030037002057280011fa0700c8
:102a0800d1a2a8000080fa00000006000400fa0025
:102a18000000eb00100798003268ef003368ef0001
:102a2800e04e280007fa07004083200005fa070057
:102a3800703c280003fa07000040eb00004f7800c4
:102a48000900370032c8bf000004e0000b003a005c
:102a58001e407800b3fe07009e00900000804000f2
:102a6800100798001e4fe80030c7b3009e4078005a
:102a780080cf5000f3ff360001003700000000004f
:102a880032c8bf000004e00004003200b05828003b
:102a9800ecf90700d1a2a800050037009e009000bd
:102aa8008056280039fa0700cb02a800d1a2a90055
:102ab8000080fa00000006001800fa00605798002d
:102ac80071579800e7004700660047000101780049
:102ad800800078006e5090009dfd07003268ef007e
:102ae8003368ef000000eb0010079800f059280049
:102af800d4f90700fe4090006e40900036fd0700b4
:102b08006e409000a1fd0700401f20009af90700c1
:102b18006e4090000080fb00214c28006140780046
:102b28000004e0000b003200111780006e40900096
:102b38000080fb00a24c2800624078000080fb0067
:102b48000008de00004078006140600010479800ef
:102b58000a003700e11680006e4090000080fb00fc
:102b6800a24c2800624078000080fb000008de00cc
:102b7800004078006140600010479800d05a280053
:102b8800b0f907001e4090000080fb00baf907006a
:102b9800703c2800abf9070021c0b30000c2b300a5
:102ba80065fc07004047980032c8bf000004e000f9
:102bb80004003200505b2800a2f907003268ef00d9
:102bc8003368ef00e05c28009ef907004e40900053
:102bd8000080fb00a8f90700703c280099f907005d
:102be8006a004700800078006e509000f4f90700f2
:102bf8000040eb00004f78003b00370032c8bf00b0
:102c08000004e0003d003a00e90047006800470082
:102c180001017800800078001e4078004cfd070014
:102c28009e4890000e4890001afd07001e4078004c
:102c38000004e00012003a0021c0b30040c2b30013
:102c480079fc07005047980032c8bf000004e00034
:102c580004003200805d28007af907003268ef002e
:102c68003368ef00105f280076f907005e40900097
:102c78000080fb0080f90700703c280071f907000c
:102c8800400620003cf907000e489000f4fd0700bc
:102c9800104798001e4090000004e00011003a0020
:102ca80070004700800078001e4078001afa07007c
:102cb800b05f280063f907006a00470061f9070060
:102cc800c0c2b30052f90700700047005df9070061
:102cd800703c28005bf907001e0090000000e80027
:102ce800100798001e4fe80030c7b3009e407800d8
:102cf80080cf5000c1ff36000100370000000000ff
:102d080032c8bf000004e000040032006060280000
:102d18004cf907003268ef003368ef006e4090000e
:102d28003dfd07008dfc07008061280045f907007c
:102d38001e00900050f90700703c280041f9070078
:102d4800a06228003ff907000080fa000000060092
:102d58002c00fa003268ef003368ef000040eb0007
:102d6800604798000040eb007047980070632800a7
:102d780034f907000040eb00004f780010013700dd
:102d8800f2004700710047000101780080007800d8
:102d98001e407800eefc07007500470080007800b0
:102da8001e40780086f90700ae5090001e50900033
:102db80089fc07001e509000f4fc0700800c2000de
:102dc800edf807000000eb00200798000040eb003a
:102dd800104798001800370032c8bf000004e00010
:102de8001a003a00f4004700730047000101780018
:102df800800078001e409000d5fc0700ce5090005f
:102e08003e509000a3fc070020032000daf80700da
:102e18003e50900092fd07000004e00003003a00d5
:102e28002e0090000000e800200798001e40900047
:102e38000040e800104798009e40900030c7b3005b
:102e480080cf5000e4ff360001003700000000008a
:102e580032c8bf000004e0000c0032008064280083
:102e6800f8f807001e80fb0003f90700703c2800f3
:102e7800f4f807003268ef003368ef001e50900046
:102e8800e5fc070035fc0700cc0037002e00900059
:102e98000000e0000b003200e0652800e9f80700b8
:102ea80075004700e7f8070070662800e5f8070096
:102eb8002e009000f0f80700703c2800e1f80700a9
:102ec800bb0037006e4090000040e8006047980063
:102ed8001e5090000080fb00214c280061407800c3
:102ee8000004e0000a003200111780001e50900014
:102ef8000080fb00a24c2800624078000080fb00a4
:102f08000008de00004078006140600009003700da
:102f1800e11680001e5090000080fb00a24c2800a3
:102f2800624078000080fb000008de000040780066
:102f380061406000704f980021c0b30000c2b30028
:102f48007dfb07000057980032c8bf000004e0006e
:102f580004003a0031c0b30000c2b30076fb07009a
:102f680020479800e0662800b6f80700750047007b
:102f7800b4f8070090672800b2f807001e509000c8
:102f88000080fb00bcf80700e0672800adf80700e8
:102f98002e5090000080fb00b7f80700306828002a
:102fa800a8f807007e4890000080fb00b2f80700f0
:102fb80032c8bf000004e000050032009068280015
:102fc800a0f807003268ef003368ef000c00370004
:102fd800406928009bf807000e5090000080fb0015
:102fe800a5f80700b069280096f807002e40900061
:102ff8000080fb00a0f80700703c280091f807004b
:103008001e5090000080fb00110020000008dd0029
:10301800804078007e40900000c060000004e0001e
:1030280063003a001e5090000080fb001100200051
:103038000008dd0000407800fe40900000c07000ed
:1030480070479800206a28007ef807001e509000fc
:103058000080fb0088f80700703c280079f807001a
:103068000040eb00204f9800470037001e509000aa
:10307800ae489000d8fb07001e50900043fc0700a4
:10308800c01220003cf807000040eb00304f9800c9
:103098002400370032c8bf000004e00026003a00d0
:1030a800fc0047007b0047000101780080007800a1
:1030b8003e48900026fc0700ce5890003e589000ed
:1030c800f4fb0700600920002bf807003e58900029
:1030d800e3fc07000004e0000f003a007d00470011
:1030e800800078003e4890000bf90700206b28000c
:1030f80054f807002e4890000080fb005ef8070097
:10310800006c28004ff807007d0047004df80700c5
:10311800703c28004bf807003e4890000040e8004b
:10312800304f9800be48900030c7b30080cf5000a1
:10313800d8ff360001003700000000001e50900044
:1031480035fc070085fb070032c8bf000004e0001b
:103158000a003200506c28003af807002e48900008
:103168000080fb0044f80700703c280035f8070091
:103178003268ef003368ef00060037002e489000f1
:103188000040e800204f98002e489000ef4f500074
:10319800b6ff3600706d28002af807001e50900010
:1031a8000080fb0034f80700703c280025f8070071
:1031b8001e50900018fc070068fb07001e4fe8002f
:1031c80030c7b3009e40780080cf5000ecfe360038
:1031d8000040eb00004f98000040eb00104f9800b3
:1031e800506e280017f807000040eb00004f7800e9
:1031f80011013700f2004700710047000101780013
:10320800800078001e407800d1fb0700ae50900087
:103218001e5090009ffb07001e5090006cfc07009a
:10322800800c2000d4f707000000eb00200798006e
:103238000040eb00104798000040eb003057980022
:103248000040eb004057980000c0eb00404f98004a
:103258000040eb00104798001d00370032c8bf003f
:103268000004e0001f003a00f40047007300470024
:1032780001017800800078001e409000b4fb070030
:10328800ce5090003e50900053fb070020032000d2
:10329800b9f707003e509000f8fb07000004e00073
:1032a80008003a002e0090000000e800200798006f
:1032b8004e489000e14f400002003a009e409000c6
:1032c800414f98001e4090000040e80010479800c9
:1032d8009e40900030c7b30080cf5000dfff36001b
:1032e80001003700000000007500470080007800ea
:1032f8001e40780088f8070032c8bf000004e000cc
:103308000c003200906f2800cef707001e80fb00eb
:10331800d9f70700703c2800caf707003268ef00a9
:103328003368ef001e50900040fc07000bfb0700bd
:10333800c00037002e0090000000e0000b003200b3
:1033480020712800bff7070075004700bdf7070088
:1033580070662800bbf707002e009000c6f707002c
:10336800703c2800b7f70700af0037000e48900000
:103378000040e800004f9800511680001e50900051
:103388000080fb00224d2800624078000080fb008e
:103398000008de000040780061406000704f98002f
:1033a80021c0b30040c2b3009ffa0700005798003d
:1033b80032c8bf000004e00004003a0031c0b30086
:1033c80040c2b30098fa070020479800e07128002f
:1033d8009cf70700750047009af7070090672800d8
:1033e80098f707001e5090000080fb00a2f7070026
:1033f800e067280093f707002e5090000080fb003c
:103408009df70700306828008ef707007e48900077
:103418000080fb0098f7070032c8bf000004e000f6
:10342800050032009068280086f707003268ef0030
:103438003368ef000c0037004069280081f7070067
:103448000e5090000080fb008bf70700b069280041
:103458007cf707002e4090000080fb0086f70700ed
:10346800703c280077f707001e5090000080fb0092
:10347800110020000008dd00804078001e48900000
:1034880000c060000004e00067003a001e50900091
:103498000080fb00110020000008dd0000407800db
:1034a8009e48900000c07000104f9800c07228001d
:1034b80064f707001e5090000080fb006ef70700bd
:1034c800703c28005ff707000040eb00504f980061
:1034d8004b0037001e509000de489000edfa0700c0
:1034e8001e509000bafb0700c012200022f7070008
:1034f8000040eb00604f98002800370032c8bf003a
:103508000004e0002a003a00410220008e804000ba
:10351800300220000e004000010178008000780091
:103528006e4890000afb0700ce6090003e60900055
:10353800a9fa0700600920000ff707003e60900015
:103548004efb07000004e00011003a005002200082
:103558000e004000800078006e48900098f7070041
:10356800f073280037f707005e4890000080fb00e2
:1035780041f707000075280032f7070050022000c5
:103588000e0040002ff70700703c28002df70700b9
:103598006e4890000040e800604f9800ee489000a8
:1035a80030c7b30080cf5000d4ff36000100370089
:1035b800000000001e5090009cfb070067fa0700ff
:1035c80032c8bf000004e0000a003200507528002d
:1035d8001cf707005e4890000080fb0026f70700f4
:1035e800703c280017f707003268ef003368ef00d7
:1035f800060037005e4890000040e800504f9800f1
:103608005e489000ef4f5000b2ff3600a0762800c9
:103618000cf707001e5090000080fb0016f707000b
:10362800703c280007f707001e5090007ffb07003a
:103638004afa07001e4fe80030c7b3009e407800e2
:1036480080cf5000ebfe3600b0772800fdf607006b
:103658006e4090000080fb0007f70700d078280034
:10366800f8f607000e4890000080fb0002f70700fc
:10367800703c2800f3f607000080fa0000000600fe
:103688002600fa00201798002e109000904078002d
:1036980040c5b30080cf500009003a0010c0b30005
:1036a80031e8b700d1c2a800cb02a900d1a2a90075
:1036b800d6fc0700d1c2a9003168ef00a801370085
:1036c8002e1090009040780080c5b30080cf500045
:1036d80009003a0010c0b30031e8b700d1c2a80011
:1036e800cb02a900d1a2a90066fc0700d1c2a9009b
:1036f8003168ef009a0137002e1090009040780052
:1037080040c4b30080cf500054003a000040eb00a2
:10371800104798000040eb00204798002e109000ba
:103728000000e80090407800c0c2b30080cf50008d
:103738003b003a002e1090000080e8002007980017
:103748000d0037001e4090006a00b90000007800a4
:10375800804078002e0090001040780080c0400023
:1037680000cdb30000c04000104798002e00900024
:103778000000e800200798002e0090009040780094
:10378800f0c2b30080cf5000050034002e00900036
:103798009040780090c3b30080cf5000e9ff340018
:1037a8002e00900090407800c0c2b30080cf500037
:1037b8001b003a002e0090000000e8002007980047
:1037c8000d0037002e4090006a00b9000000780014
:1037d800804078002e0090001040780080c04000a3
:1037e80000cdb30000c04000204798002e00900094
:1037f8000000e800200798002e0090009040780014
:10380800f0c2b30080cf5000050034002e009000b5
:103818009040780090c3b30080cf5000e9ff340097
:103828009e40900030c7b30080cf500002003600a1
:103838000040eb00104798002e409000ef4f5000da
:10384800020036000040eb0020479800ae40900090
:103858001e40900098fc0700410137002e10900090
:103868009040780030c5b30080cf500029003a005e
:103878002e1090000000e80090407800c0c2b3000d
:1038880080cf500023003a002e1090000080e800fe
:10389800200798000040eb00004f78000a0037002e
:1038a8001e81fb002e00900090407800408320008d
:1038b80000004100014878001e4fe8002e009000eb
:1038c8000000e800200798002e00900010407800c3
:1038d8000004e000030032001e407800f64f50005c
:1038e800efff36009e80fb004083200000804000f0
:1038f8008040eb00014878002079280051f6070045
:10390800408320004ff60700703c28004df6070062
:10391800130137002e1090009040780090c4b30037
:1039280080cf50003d003a00a079280045f60700f6
:10393800b07a280043f6070000c2b3003047980069
:1039480013003700707b28003ef607003e409000c9
:1039580079f60700c0c2b3002df607003e4090007c
:10396800a4f707000004e00002003200507c2800a1
:1039780001003700907c280032f60700703c2800d0
:1039880030f607003e4090000040e80030479800bd
:10399800be40900070c2b30080cf5000e9ff3600ef
:1039a800e07c280027f6070000c2b30030479800e3
:1039b80013003700a07d280022f607003e40900043
:1039c8005df60700c0c2b30011f607003e40900044
:1039d8007af807000004e00002003200507c28005a
:1039e80001003700907c280016f60700703c28007c
:1039f80014f607003e4090000040e8003047980069
:103a0800be40900070c2b30080cf5000e9ff36007e
:103a1800807e28000bf60700d10037002e1090009a
:103a28009040780060c5b30080cf500003003a0092
:103a3800807f280003f60700c90037002e10900089
:103a48009040780000c5b30080cf500003003a00d2
:103a580070802800fbf50700c10037002e10900089
:103a680090407800a0c4b30080cf500002003a0014
:103a7800b7fc0700ba0037002e109000904078007d
:103a880070c4b30080cf50004a003a00e08028009c
:103a9800ecf507000040eb00604798003f00370056
:103aa800ee4090000040eb007af907000040eb0080
:103ab80047fa0700800c2000aff507000040eb0034
:103ac800704798002400370032c8bf000004e000a7
:103ad80026003a00ed0047006c004700010178001d
:103ae800800078007e40900099f90700de48900039
:103af8004e48900038f90700200320009ef5070083
:103b08004e489000ddf907000004e0000f003a007d
:103b18006e004700800078007e40900028f607007d
:103b2800b0812800c7f507006e4090000080fb00b8
:103b3800d1f5070040822800c2f507006e00470053
:103b4800c0f50700703c2800bef507007e409000d5
:103b58000040e80070479800fe40900030c7b3006e
:103b680080cf5000d8ff3600010037000000000069
:103b78000040eb002dfa0700f8f8070032c8bf0034
:103b88000004e000020032003268ef003368ef0002
:103b98006e4090000040e800604798006e4090003a
:103ba800ef4f5000beff360090822800a5f50700b1
:103bb8006b0037002e1090009040780060c4b3006e
:103bc80080cf500066003a00408328009df507002a
:103bd80030c3b300004f98005b003700f500470082
:103be8007400470001017800800078000e489000ba
:103bf80057f90700de5090004e509000f6f8070085
:103c08004e50900061f90700800c20005af507001b
:103c180078004700800078000e489000e8f507001b
:103c28000000eb00500798000040eb00104f980090
:103c38002b00370032c8bf000004e0002d003a0016
:103c4800f7004700760047000101780080007800ff
:103c58001e4890003ef90700fe5090006e509000fc
:103c68000cf907002003200043f507006e50900070
:103c7800fbf907000004e00016003a007e00470048
:103c8800800078001e48900023f607002084280052
:103c98006cf50700780047006af50700c084280023
:103ca80068f507001e4890000080fb0072f50700c9
:103cb800904e280063f507007e00470061f5070075
:103cc800703c28005ff507005e0090000000e800e7
:103cd800500798001e4890000040e800104f9800d8
:103ce8009e48900030c7b30080cf5000d1ff360007
:103cf80001003700000000005e0090000000e000b6
:103d080006003a00208428004ef507007800470096
:103d18004cf50700108528004af5070032c8bf0097
:103d28000004e000020032003268ef003368ef0060
:103d38004e50900038f9070088f807000e489000a8
:103d480000c0e800004f98008e48900010c4b300ef
:103d580080cf5000a1ff3600c085280039f5070044
:103d68000080fa00000006000200fa000080eb0064
:103d7800401588000080eb0030168800301680005f
:103d88000080a10030168800501680000080a10035
:103d980050168800f01f2000c01688000080eb0035
:103da800f016880061168000f0ff2900008060008e
:103db8006016880081168000f0ff290000806000ee
:103dc800801688009116800030ff2f000080600068
:103dd80090168800b116800030ff2f000080600028
:103de800b0168800f1f4070000f50700a0002000d5
:103df800cbf407001ef60700bff6070050002000ae
:103e0800c7f4070026f8070032c8bf000004e00026
:103e180002003200808628000af507004ff80700e4
:103e2800800c2000bef40700e087280005f5070095
:103e3800807f280003f5070041072000d08828006c
:103e480052f507000040eb00004f78000d003700e6
:103e5800cb02a800d1a2a800d1c2a800d642a800cf
:103e680060092000aef40700cb02a900d1a2a90086
:103e7800d1c2a900d642a90060092000a8f4070011
:103e88001e4fe8001e407800e24f5000f0ff360059
:103e980003003700000000000100370000000000a8
:103ea800c0108000620060000000e00001003200e5
:103eb8001822a900c0108000610060000000e00026
:103ec80022003200e0108000104798001e40900049
:103ed800ed4f5000030032001e409000ea4f5000a2
:103ee8000d003a0030c8bf000004e000170032009f
:103ef80030c8bf008080fb000080200000804000a8
:103f08008040eb000148780000802000dcfd0700bd
:103f18003068ef000d0037000183200091407800e1
:103f2800e0c2b30080cf500008003e0030c8bf0098
:103f38000081fb0001802000810041001e419000ab
:103f4800824878000040e80030e8b700d1168000c9
:103f580000102000008060000000e000cdff3a0063
:103f6800e00120006ef40700d11680000010200048
:103f7800008060000000e000c8ff3a0020892800a7
:103f8800bffd070000000000d116800000102000cf
:103f9800008060000000e000fbff3200e00120002c
:083fa8005ff40700beff3700c3
:020000040000fa
:103fb000340800001c00000002000000534e2d00d9
:103fc00030303000303030000000000000000000d1
:103fd000000000000000000000000000ffffff00e4
:103fe000ff00000000080000340000000000000096
:043ff00000000000cd
:020000040000fa
:0200000401f009
:040000000683000073
:020000040000fa
:0200000401f009
:040004003f000000b9
:020000040000fa
:0200000401f009
:04000800338700003a
:020000040000fa
:0200000401f009
:04001400ffffff00eb
:00000001FF
