:020000040000fa
:080000000001040000000000f3
:020000040000fa
:04000800e001000013
:020000040000fa
:04000c00e00100000f
:020000040000fa
:04001000e00100000b
:020000040000fa
:04001400e001000007
:020000040000fa
:04001800e001000003
:020000040000fa
:04001c00e0010000ff
:020000040000fa
:04002000e0010000fb
:020000040000fa
:04002400e0010000f7
:020000040000fa
:04002800e0010000f3
:020000040000fa
:04002c00e0010000ef
:020000040000fa
:04003000e0010000eb
:020000040000fa
:04003400c8010000ff
:020000040000fa
:04003800e0010000e3
:020000040000fa
:04003c00e0010000df
:020000040000fa
:04004000e0010000db
:020000040000fa
:04004400e0010000d7
:020000040000fa
:04004800e0010000d3
:020000040000fa
:04004c00e0010000cf
:020000040000fa
:04005000e0010000cb
:020000040000fa
:04005400e0010000c7
:020000040000fa
:04005800e0010000c3
:020000040000fa
:04005c00e0010000bf
:020000040000fa
:04006000e0010000bb
:020000040000fa
:04006400e0010000b7
:020000040000fa
:04006800e0010000b3
:020000040000fa
:04006c00e0010000af
:020000040000fa
:04007000e0010000ab
:020000040000fa
:04007400e0010000a7
:020000040000fa
:04007800e0010000a3
:020000040000fa
:04007c00e00100009f
:020000040000fa
:04008000e00100009b
:020000040000fa
:04008400e001000097
:020000040000fa
:04008800e001000093
:020000040000fa
:04008c00e00100008f
:020000040000fa
:04009000e00100008b
:020000040000fa
:04009400e001000087
:020000040000fa
:04009800e001000083
:020000040000fa
:04009c00e00100007f
:020000040000fa
:0400a000e00100007b
:020000040000fa
:0400a400e001000077
:020000040000fa
:0400a800e001000073
:020000040000fa
:0400ac00e00100006f
:020000040000fa
:0400b000e00100006b
:020000040000fa
:0400b400e001000067
:020000040000fa
:0400b800e001000063
:020000040000fa
:0400bc00e00100005f
:020000040000fa
:0400c000e00100005b
:020000040000fa
:0400c400e001000057
:020000040000fa
:0400c800e001000053
:020000040000fa
:0400cc00e00100004f
:020000040000fa
:0400d000e00100004b
:020000040000fa
:0400d400e001000047
:020000040000fa
:0400d800e001000043
:020000040000fa
:04010800e001000012
:020000040000fa
:04010c00e00100000e
:020000040000fa
:04011000e00100000a
:020000040000fa
:04011400e001000006
:020000040000fa
:04011800e001000002
:020000040000fa
:04011c00e0010000fe
:020000040000fa
:04012000e0010000fa
:020000040000fa
:04012400e0010000f6
:020000040000fa
:04012800e0010000f2
:020000040000fa
:04012c00e0010000ee
:020000040000fa
:04013000e0010000ea
:020000040000fa
:04013400c8010000fe
:020000040000fa
:04013800e0010000e2
:020000040000fa
:04013c00e0010000de
:020000040000fa
:04014000e0010000da
:020000040000fa
:04014400e0010000d6
:020000040000fa
:04014800e0010000d2
:020000040000fa
:04014c00e0010000ce
:020000040000fa
:04015000e0010000ca
:020000040000fa
:04015400e0010000c6
:020000040000fa
:04015800e0010000c2
:020000040000fa
:04015c00e0010000be
:020000040000fa
:04016000e0010000ba
:020000040000fa
:04016400e0010000b6
:020000040000fa
:04016800e0010000b2
:020000040000fa
:04016c00e0010000ae
:020000040000fa
:04017000e0010000aa
:020000040000fa
:04017400e0010000a6
:020000040000fa
:04017800e0010000a2
:020000040000fa
:04017c00e00100009e
:020000040000fa
:04018000e00100009a
:020000040000fa
:04018400e001000096
:020000040000fa
:04018800e001000092
:020000040000fa
:04018c00e00100008e
:020000040000fa
:04019000e00100008a
:020000040000fa
:04019400e001000086
:020000040000fa
:04019800e001000082
:020000040000fa
:04019c00e00100007e
:020000040000fa
:0401a000e00100007a
:020000040000fa
:0401a400e001000076
:020000040000fa
:0401a800e001000072
:020000040000fa
:0401ac00e00100006e
:020000040000fa
:0401b000e00100006a
:020000040000fa
:0401b400e001000066
:020000040000fa
:0401b800e001000062
:020000040000fa
:0401bc00e00100005e
:020000040000fa
:0401c000e00100005a
:020000040000fa
:0401c400e001000056
:020000040000fa
:0401c800e001000052
:020000040000fa
:0401cc00e00100004e
:020000040000fa
:0401d000e00100004a
:020000040000fa
:0401d400e001000046
:020000040000fa
:0401d800e001000042
:020000040000fa
:100200000f8520000eff20000e0188000000000076
:10021000000020000000e000020032000001200089
:100220002002880014000700670007000000e000bb
:1002300003003a0000f02100010020000200370016
:100240000000200001002000810f7000010032003a
:1002500014000700000020000000e000020032004f
:100260000000020000000000e01d0200000000008d
:100270000040da000000fe004440a900605c20005d
:100280000000e0000300320000002000a001880010
:100290004440a800000006008a1f78008b1f7800e9
:1002a0000000060091018800800478000000eb0047
:1002b0001a003700e284440032a0b4009905ba0065
:1002c000e284440032a0b4009906ba00e2844400fb
:1002d00032a0b4000006eb00476fde00fd07b2005d
:1002e000636ce10003003a00ebff07000000eb0045
:1002f0000a003700606ce10004003a00005deb008a
:100300008b05e900fdff3e00040037006168e10055
:10031000010032000086eb000b00070019c7ba008d
:100320001905ba000e04e00003003a000a00e000dc
:10033000e0ff3a0000000600fe07b2009e018800c0
:100340008a047800f5ff3700395dba008b05e900b3
:100350000c003200295dba008b05e900080032006c
:100360000c00e00003003a00e284440032a0b40034
:10037000f5ff370019ddba008b05e900faff3a00f6
:100380008904e800e184440032a0b40000000600c3
:10039000801f78000000fa008460a90031c8bf0007
:1003a0000004e00003003a00b01680000020a20024
:1003b000b01688000080fa004f0078000040060068
:0c03c0000040da000000fe000000050014
:020000040000fa
:1003cc004101000041020000410300004104000013
:1003dc0041050000410600004107000041080000f3
:1003ec0041090000410a0000410b0000410c0000d3
:1003fc00410d0000410e0000410f000041100000b3
:10040c0041110000420100004202000042030000c2
:10041c0042040000420500004206000042070000b2
:10042c004208000042090000420a0000420b000092
:10043c00420c0000420d0000420e0000420f000072
:10044c004210000042110000430100004302000072
:10045c004303000043040000430500004306000072
:10046c00430700004308000043090000430a000052
:10047c00430b0000430c0000430d0000430e000032
:10048c00430f000043100000431100004401000022
:10049c004402000044030000440400004405000032
:1004ac004406000044070000440800004409000012
:1004bc00440a0000440b0000440c0000440d0000f2
:1004cc00440e0000440f00004410000044110000d2
:1004dc0045010000450200004503000045040000f2
:1004ec0045050000450600004507000045080000d2
:1004fc0045090000450a0000450b0000450c0000b2
:10050c00450d0000450e0000450f00004510000091
:10051c0046010000460200004603000046040000ad
:10052c00460500004606000046070000460800008d
:10053c0046090000460a0000460b0000460c00006d
:10054c00460d0000460e0000460f0000461000004d
:10055c004701000047020000470300004704000069
:10056c004705000047060000470700004708000049
:10057c0047090000470a0000470b0000470c000029
:10058c00470d0000470e0000470f00004710000009
:10059c0030310000323300003435000036370000b3
:1005ac003839000041420000434400004546000039
:1005bc00000d00000a000000410100004102000093
:1005cc004103000041040000410500004106000009
:1005dc00410700004108000041090000410a0000e9
:1005ec00410b0000410c0000410d0000410e0000c9
:1005fc00410f0000411000004111000042010000b9
:10060c0042020000420300004204000042050000c8
:10061c0042060000420700004208000042090000a8
:10062c00420a0000420b0000420c0000420d000088
:10063c00420e0000420f0000421000004211000068
:10064c004301000043020000430300004304000088
:10065c004305000043060000430700004308000068
:10066c0043090000430a0000430b0000430c000048
:10067c00430d0000430e0000430f00004310000028
:10068c004311000044010000440200004403000038
:10069c004404000044050000440600004407000028
:1006ac004408000044090000440a0000440b000008
:1006bc00440c0000440d0000440e0000440f0000e8
:1006cc0044100000441100004501000045020000e8
:1006dc0045030000450400004505000045060000e8
:1006ec00450700004508000045090000450a0000c8
:1006fc00450b0000450c0000450d0000450e0000a8
:10070c00450f0000451000004601000046020000a5
:10071c0046030000460400004605000046060000a3
:10072c00460700004608000046090000460a000083
:10073c00460b0000460c0000460d0000460e000063
:10074c00460f000046100000470100004702000061
:10075c00470300004704000047050000470600005f
:10076c00470700004708000047090000470a00003f
:10077c00470b0000470c0000470d0000470e00001f
:10078c00470f000047100000802000000000000010
:10079c00401000000000000000000000802000005d
:1007ac0000000000401000000100000000000000ec
:1007bc000100000000000000010500000002000024
:1007cc000004000001030000030100000406000007
:1007dc000200000005070000434f00004e4e0000d1
:1007ec002c000000434f00004e4e00002c4a00002d
:1007fc00312e0000002c00004a3200002e000000b8
:10080c0054450000535400005f5300005441000055
:10081c00525400002c0000005041000053530000c3
:10082c005f4100005f53000054410000525400002f
:10083c000d0a000000450000525200004f5200000b
:10084c002c490000324300005f540000494d000069
:10085c00454f0000555400005f500000415300000c
:10086c00535f0000410d00000a00000050410000e1
:10087c00535300005f4100005f4400004f4e0000e6
:10088c00452c00000050000041530000535f000055
:10089c00425f00005354000041520000540d000010
:1008ac000a00000045520000524f0000522c00007c
:1008bc0049320000435f0000544900004d450000e0
:1008cc004f550000545f000050410000535300008e
:1008dc005f4200000d0a0000005000004153000070
:1008ec00535f0000425f0000444f00004e45000083
:1008fc002c00000054450000535400005f440000dd
:10090c004f4e00004500000057410000524e0000c1
:10091c002c50000041530000535f0000415f000069
:10092c00425f00004d490000534d0000415400004f
:10093c00434800000d0a0000004500005252000020
:10094c004f5200002c490000324300005f5400005d
:10095c00494d0000454f0000555400000d0a0000a1
:10096c000044000045420000554700005f53000062
:10097c0054410000525400000d0a0000005a0000bf
:10098c00415f00004c410000542c0000004400006a
:10099c0045420000554700002c490000324300003e
:1009ac005f52000045410000445f000045520000ca
:1009bc00525f000055310000390d00000a000000a4
:1009cc0055310000395f00004f55000054300000d5
:1009dc002c0000004445000042550000472c00004c
:1009ec0049320000435f00005245000041440000c2
:1009fc005f450000525200005f550000323000008d
:100a0c000d0a000000550000323000005f4f00005e
:100a1c0055540000302c00000044000049410000f7
:100a2c00475f0000434f00004e4e00002c000000ba
:100a3c004445000042550000472c0000493200009c
:100a4c00435f000045520000524f0000520d000061
:100a5c000a0000004445000042550000472c0000ed
:100a6c00434f00004e4e00005f4600004f55000003
:100a7c004e4400002c00000044450000425500008c
:100a8c00475f0000444f00004e4500000d0a000077
:100a9c00004a0000494700005f4400004941000043
:100aac00475f00005354000041520000540d0000f9
:100abc000a0000004a490000475f0000444900005a
:100acc00414700005f490000324300005f450000d1
:100adc00525200002c640000727600003d000000b1
:100aec0044490000414700005f4f00004b2c0000c0
:100afc00002c0000636f00006e6e00003d000000d3
:100b0c0044490000414700005f4600004149000095
:100b1c004c2c0000002c00006d6900003d00000012
:100b2c002c630000683d0000002c00004c410000cc
:100b3c00543d0000002c000049320000435f0000cf
:100b4c0045520000520d00000a0000002c4f00001e
:100b5c0055540000303d0000002c00004f550000a3
:100b6c00543100003d000000535700004545000083
:100b7c00505f00005354000041520000542c000000
:100b8c006d6900003d000000535700004545000012
:100b9c00505f000048490000542c000063680000be
:100bac003d0000002c4a0000323d000000530000c4
:100bbc0057450000455000005f49000032430000db
:100bcc005f450000525200002c630000683d00009d
:100bdc000053000057450000455000005f450000e1
:100bec004e4400002c6d0000693d0000004a0000de
:100bfc00494700005f44000049410000475f000086
:100c0c004a3200005f53000054410000525400006f
:100c1c000d0a0000004a0000494700005f44000034
:100c2c0049410000475f00004a3200005f49000064
:100c3c00324300005f450000525200002c6400005b
:100c4c00727600003d00000044490000414700005e
:100c5c005f4a0000325f00004f4b00002c00000088
:100c6c0044490000414700005f4a0000325f000029
:100c7c0046410000494c00002c0000005357000076
:100c8c0045450000505f00004a3200005f530000f1
:100c9c0054410000525400002c6d0000693d0000ce
:100cac000053000057450000455000005f4a00000b
:100cbc00325f000048490000542c000063680000bb
:100ccc003d0000002c4a0000313d000000530000a4
:100cdc0057450000455000005f4a0000325f00009d
:100cec0049320000435f000045520000522c0000c6
:100cfc00636800003d0000005357000045450000ac
:100d0c00505f00004a3200005f4500004e44000076
:100d1c002c6d0000693d0000004a000049470000ae
:100d2c005f44000049410000475f0000444f000051
:100d3c004e4500002c6a0000313d0000002c0000e4
:100d4c006a3200003d00000053450000524900008b
:100d5c00414c00002c00000049320000435f0000b1
:100d6c0053430000414e00005f530000544100000b
:100d7c00525400000d0a00000042000055530000c0
:100d8c00312c000055310000393a00000d0a0000ea
:100d9c000049000032430000315f00005052000057
:100dac004f420000452c000030780000004100004c
:100dbc00434b0000004e0000414300004b0000007c
:100dcc0042550000533200002c5500003230000018
:100ddc003a0d00000a0000004932000043320000c6
:100dec005f500000524f0000424500002c300000c4
:100dfc007800000049320000435f000053430000bc
:100e0c00414e00005f4400004f4e0000450d0000b5
:100e1c000a0000005645000052530000494f0000e4
:100e2c004e2c0000342e0000313000000d0a000062
:100e3c00005000004f4e0000470d00000a0000005b
:100e4c004a320000473000005f530000544100005c
:100e5c00525400000d0a0000004a00003247000006
:100e6c00302c0000727000003d0000002c4a000085
:100e7c00312e0000004a000032470000305f0000b5
:100e8c00454e0000440d00000a00000046440000de
:100e9c0049410000475f00005354000041520000dc
:100eac00540d00000a0000004644000049410000b7
:100ebc00472c00004a3100002e0000002c7200006c
:100ecc00703d0000002c00004e4f00005f430000fe
:100edc004f4e00004e0d00000a000000464400007a
:100eec0049410000475f0000454e0000440d0000e2
:100efc000a00000045520000524f0000522c000026
:100f0c0049320000435f0000494e00004954000084
:100f1c005f460000414900004c0d00000a00000033
:100f2c005445000053540000455200005f5200002d
:100f3c0045410000445900000d0a0000005000001b
:0c0f4c00494e000053000000540000005b
:020000040000fa
:100f58000600fa00200798000000eb00000f780058
:100f68000d0037000000eb00100798000300370061
:100f78001e0090000000e800100798009e009000f6
:100f8800105c2000808f5000f9ff36001e007800aa
:100f98000000e800000f78009e0078002e00900006
:100fa800808f5000efff39000080fa000000060033
:100fb8000400fa00100798000000eb00000f78000a
:100fc800020037000e0009001e0fe8001e00900006
:100fd8009e007800808f5000faff39000080fa00e8
:100fe800000006000000fa00000320002008880026
:100ff800f0072700100888000021ef00a1048000f6
:10100800f0ff28000080600000e0a000a004880035
:101018008460a9008c60a80005e1a8000080fa009f
:10102800000006000000fa0070002000f0108800a0
:1010380000002800b010880000402000c010880080
:101048000080fa00000006000200fa00004f780055
:1010580000000000c1108000002020000080600017
:101068000000e000fbff3a001e4078000080fb0013
:10107800d01088000080fa00000006000200fa0084
:10108800000f7800040037001e0078001040780038
:101098001e0fe800ecff07001e00780010407800e3
:1010a8000004e000f8ff3a000080fa0000000600a3
:1010b8000a00fa00400798000040eb00104798002b
:1010c8004e0090000000e00017003a0000c3b30093
:1010d800ddff0700240037001e4090008081fb00e0
:1010e8004e019000d0cc2c000010b8004308de0060
:1010f8006a00b900000078000000510080407800c4
:1011080003004700214098001e4090000040e8007e
:1011180010479800ce009000d0cc2c000008b800f2
:101128004308de00400798004e0090000000e000f1
:10113800e9ff3a009e409000014f78000700370011
:101148001e80fb000000e9000000470020409000de
:101158000043b000bcff07001e4fe9001e407800a6
:101168000004e000f6ff3a000080fa0000000600e4
:101178000400fa0020479800e02c2800000f7800af
:101188002e4090000080fb004400de000040780004
:101198000080fb006f0060001e00400010407800d7
:1011a800a9ff07002e4090000080fb006f00600040
:1011b8001e00400010407800a3ff07000080fa00de
:1011c800000006000400fa00000f780011079800dc
:1011d8001e007800a9ff0700c0c2b3009aff0700ed
:1011e8001e009000b2ff0700f02d2800a3ff0700a3
:1011f8000080fa00000006000a00fa006047980024
:1012080041079800ee40900030c7b30080cf5000ef
:10121800080036004e009000f1c3b3000148780082
:101228004e0090000000e8008040eb000148780084
:10123800450037006e4090000080fb000000400031
:10124800611e280061407800804078004e009000c0
:10125800014878006e4090000080fb0000004000cc
:10126800711e2800614f78000040eb00104798007d
:101278001e4090008081fb001e81fb00d0cc2c001a
:101288000010b8004308de006a00b90000007800ca
:10129800000051008040780003004700314098006a
:1012a8001e4090000040e800104798009e80fb0018
:1012b800d0cc2c000008b8004308de00004f7800ae
:1012c8001e4078000004e000e9ff3a009e409000cc
:1012d80021479800120037001e4090008080fb00d4
:1012e8002e4090000080fb00008050000000e800c5
:1012f800ce00900000804000ae4090008180fb004e
:101308008100e90081004700b14090000143b0002e
:10131800014878002e4090000040e90020479800de
:101328002e4090000004e000ebff3a001e409000c1
:101338000080fb000000e800ce0090000080400024
:101348008040eb00014878000080fa0000000600a9
:101358000a00fa006047980041079800ee409000a4
:1013680030c7b30080cf5000080036004e00900010
:10137800f1c3b300014878004e0090000000e80077
:101388008040eb0001487800450037006e4090002f
:101398000080fb0000004000212e280061407800fa
:1013a800804078004e009000014878006e40900020
:1013b8000080fb0000004000312e2800614f7800bb
:1013c8000040eb00104798001e4090008081fb0011
:1013d8001e81fb00d0cc2c000010b8004308de00b2
:1013e8006a00b900000078000000510080407800d1
:1013f80003004700314098001e4090000040e8007c
:10140800104798009e80fb00d0cc2c000008b80044
:101418004308de00004f78001e4078000004e0001a
:10142800e9ff3a009e4090002147980012003700db
:101438001e4090008080fb002e4090000080fb0042
:10144800008050000000e800ce00900000804000be
:10145800ae4090008180fb008100e90081004700d8
:10146800b14090000143b000014878002e40900040
:101478000040e900204798002e4090000004e0005a
:10148800ebff3a001e4090000080fb000000e800df
:10149800ce009000008040008040eb0001487800ba
:1014a8000080fa00000006000000fa003002200068
:1014b8002010880007e2a8000080fa00000006005b
:1014c8000200fa000000eb00000f780032c8bf00ed
:1014d8000004e0000f003a000602a80008003700e8
:1014e8001e0fe800005327009e007800808f5000f0
:1014f8000300360010c0b30032e8b700060037001a
:1015080030108000610060000000e000f4ff3a0045
:1015180001003700000000000080fa00000006000b
:101528000200fa000000eb00000f780032c8bf008c
:101538000004e0000f003a000642a8000800370047
:101548001e0fe800005327009e007800808f50008f
:101558000300360010c0b30032e8b70006003700b9
:1015680030108000640060000000e000f4ff3a00e2
:1015780001003700000000000080fa0000000600ab
:101588000400fa00204798000000eb00000f7800e4
:1015980032c8bf000004e00021003a002e4090004d
:1015a8000080fb0010108800080037001e0fe800bc
:1015b800005327009e007800808f500003003600fb
:1015c80010c0b30032e8b7001600370040108000a2
:1015d800610060000000e000f4ff3a000000eb004a
:1015e800000f7800080037001e0fe800005327009e
:1015f8009e007800808f50000300360010c0b300b2
:1016080032e8b700070037004110800000002400ce
:10161800008060000000e000f3ff3a00010037009e
:10162800000000000080fa00000006000600fa0032
:10163800404798003268ef00a1ff070032c8bf009a
:101648000004e000030032003268ef000040eb00c5
:10165800350037004e409000004040000080fb00fd
:10166800101088000000eb00000f78000800370019
:101678001e0fe800005327009e007800808f50005e
:101688000300360010c0b30032e8b700040037008a
:1016980040108000610060000000e000f4ff3a00a4
:1016a8000000eb00000f7800080037001e0fe8006c
:1016b800005327009e007800808f500003003600fa
:1016c80010c0b30032e8b7000500370041108000b1
:1016d80000002400008060000000e000f3ff3a00f2
:1016e80032c8bf000004e00007003a004110800043
:1016f80000002800008060000000e00002003a00be
:1017080010c0b300010037000040eb0020479800ec
:101718003268ef0082ff07003268ef0020032000e4
:1017280023fe07002e4090000080fa00000006000b
:101738000000fa00e2c2a900dec2a800d602a80092
:10174800d202a900a000200019fe07000080fa00bc
:10175800000006000000fa0033c8bf000004e000e3
:101768000e003a00dec2a800d602a800d202a900e4
:10177800500020000efe0700e2c2a900dec2a90048
:10178800500020000afe0700d602a900d202a900d4
:101798005000200006fe070001003700000000008e
:1017a8000080fa00000006000000fa0033c8bf00fd
:1017b8000004e0000c003a00e2c2a900dec2a90061
:1017c80020002000fafd0700d602a800d202a900d6
:1017d80050002000f6fd0700dec2a80050002000df
:1017e800f3fd070001003700000000000080fa0048
:1017f800000006000000fa0033c8bf000004e00043
:1018080010003a00dec2a80020002000e8fd070012
:10181800d602a800d202a90050002000e4fd07006b
:10182800e2c2a900dec2a90050002000e0fd0700c6
:10183800d602a900d202a90020002000dcfd070082
:1018480001003700000000000080fa0000000600d8
:101858000400fa002047980033c8bf000004e000e5
:101868002e003a000040eb00004f780015003700ca
:101878002e4090000004e00002003d00dec2a800f7
:1018880002003700e2c2a900dec2a9002000200041
:10189800c7fd0700d602a800d202a9005000200008
:1018a800c3fd0700d602a900d202a900200020002b
:1018b800bffd07002e4090000040400020479800e0
:1018c8001e4fe8001e407800e74f5000e8ff360042
:1018d800dec2a80020002000b5fd0700d602a8003f
:1018e800d202a90030002000b1fd070001178000d6
:1018f80000042000008060000000e00002003200c8
:1019080010c0b30033e8b700d602a900d202a9007c
:1019180020002000a6fd070001003700000000009d
:101928000080fa00000006000200fa000040eb0008
:101938001047980033c8bf000004e00002003200de
:1019480000c0eb0029003700dec2a8000040eb0011
:10195800004f780016003700d602a800d202a9006e
:101968005000200092fd07001e40900000404000fb
:101978008040780002178000000420000000610009
:101988000000e0000200320010c0b3000100370080
:101998000040eb0000c0700010479800d602a90074
:1019a800d202a9002000200081fd07001e4fe80098
:1019b8001e407800e74f5000e7ff3600dec2a8005f
:1019c800200020007afd0700d602a800d202a90054
:1019d8005000200076fd0700d602a900d202a90017
:1019e8002000200072fd07001e4090000080fa00d1
:1019f800000006000400fa00204798003368ef0052
:101a080054ff070033c8bf000004e00003003200a1
:101a18003368ef000040eb000e0037002e409000c6
:101a2800004040008aff070033c8bf000080fb0069
:101a38000000e9004f00de00004f78003368ef0037
:101a480059ff07003368ef002003200058fd070006
:101a58001e4078000080fa00000006000200fa002c
:101a68000000eb00000f780032c8bf000004e0005f
:101a78000f003a000622a800080037001e0fe800f1
:101a8800005327009e007800808f50000300360026
:101a980010c0b30032e8b7000600370030108000ed
:101aa800620060000000e000f4ff3a000100370027
:101ab800000000000080fa00000006000200fa00a2
:101ac8000000eb00000f780032c8bf000004e000ff
:101ad8000200320000c0eb00230037000662a800b5
:101ae800090037001e0fe800005327009e00780009
:101af800808f50000400360010c0b30032e8b700f1
:101b080000c0eb0018003700401080006200600041
:101b18000000e000f3ff320006a2a8000682a80039
:101b28000000eb00000f7800090037001e0fe800e6
:101b3800005327009e007800808f50000400360074
:101b480010c0b30032e8b70000c0eb000600370051
:101b580030108000700060000000e000f3ff3a00e1
:101b680000108000004078000080fa0000000600a5
:101b78000400fa00204798003147980050fe0700fb
:101b88002e409000004040007dfe07003e4090003f
:101b98007bfe0700b1ff07002e4090000040400088
:101ba8000004a00076fe0700c4ff0700004f78007d
:101bb8005bfe07001e4078000080fa000000060067
:101bc8000400fa00004f7800114798002247980057
:101bd8003bfe07001e4078000040400068fe0700fa
:101be8001e40900066fe07002e40900064fe07002d
:101bf8004bfe07000080fa00000006000400fa000f
:101c0800004f7800114798002247980032c8bf005b
:101c18000004e0000f003a00cefe07001e407800e6
:101c2800004040000aff07001e40900008ff070020
:101c38002e40900006ff0700dbfe070033c8bf00f8
:101c48000004e0000400320010c0b30032e8b7001e
:101c580001003700000000000080fa0000000600c4
:101c68000400fa00204798003147980032c8bf00a6
:101c78000004e0000200320000c0eb00140037004e
:101c8800b4fe07002e40900000404000f0fe070020
:101c98003e409000eefe0700d6fe07002e40900062
:101ca800004040000004a000e9fe07001eff0700f6
:101cb800004f7800bcfe070033c8bf000004e000f6
:101cc8000200320010c0b30032e8b7001e407800ae
:101cd8000080fa00000006000000fa000041eb0056
:101ce80061c0b30000c2b300b5ff07000041eb00bc
:101cf80071c0b30000c2b300b1ff07000041eb00a0
:101d080061c0b30040c2b300bcff07000041eb0054
:101d180071c0b30040c2b300b8ff070000c0eb00b9
:101d28004ce8b70000c0eb004de8b70000c0eb007e
:101d38004ee8b70000c0eb004fe8b7004cc8bf0042
:101d48000041780021c0b30000c2b3009cff070027
:101d58004dc8bf000041780031c0b30000c2b300d5
:101d680097ff07004ec8bf000041780021c0b300ac
:101d780040c2b300a1ff07004fc8bf000041780070
:101d880031c0b30040c2b3009cff07000080fa00d6
:101d9800000006000000fa0000c0eb004ce8b700a5
:101da80000c0eb004de8b70000c0eb004ee8b700fc
:101db80000c0eb004fe8b7004cc8bf0000417800f6
:101dc80021c0b30000c2b3007dff07004dc8bf00ab
:101dd8000041780031c0b30000c2b30078ff0700ab
:101de8004ec8bf000041780021c0b30040c2b30014
:101df80082ff07004fc8bf000041780031c0b30020
:101e080040c2b3007dff07000080fa000000060012
:101e18000200fa00004f78001147980000c0eb005c
:101e28004ce8b70000c0eb004de8b700c1842000c3
:101e38009140780000cfb30080c060001e40900041
:101e48006f40600000c070004ce8b7001e80fb00c7
:101e5800a13c2800614078000004e000080032003e
:101e68001e80fb00a13c28006140780080c0ea0089
:101e78004cc8bf0000c060004ce8b700070037003e
:101e88001e80fb00213d28006140780080c0ea00e8
:101e98004dc8bf0000c060004de8b7004cc8bf0087
:101ea8000041780021c0b30000c2b30044ff07001e
:101eb8004dc8bf000041780031c0b30000c2b30074
:101ec8003fff07000080fa00000006000200fa0049
:101ed800004f78001147980000c0eb004ee8b700ab
:101ee80000c0eb004fe8b700e18420009140780083
:101ef80000cfb30080c060001e4090006f406000bb
:101f080000c070004ee8b7001e80fb00a13c28000e
:101f1800614078000004e000080032001e80fb00e9
:101f2800a13c28006140780080c0ea004ec8bf008c
:101f380000c060004ee8b700070037001e80fb00b5
:101f4800213d28006140780080c0ea004fc8bf00ea
:101f580000c060004fe8b7004ec8bf0000417800dd
:101f680021c0b30040c2b30024ff07004fc8bf0020
:101f78000041780031c0b30040c2b3001fff070022
:101f88000080fa00000006000600fa00004f780002
:101f980011079800220798001e80fb004400de000d
:101fa800804078001e009000014878001e417800ab
:101fb800ef4061002e009000014878000080fa0090
:101fc800000006000400fa00204798002e40900008
:101fd8000080fb00213e2800614078000080fb0063
:101fe800110020000008dd00000f78002e4090004e
:101ff8000080fb00a13d2800614078000004e0005b
:10200800090032009e80ea00f0168000008060001f
:10201800f01688009e80ea0010178000008060009b
:1020280010178800080037009e80ea00c01680005c
:1020380000806000c01688009e80ea00e0168000dc
:1020480000806000e01688000080fa0000000600aa
:102058000400fa00204798002e4090000080fb0002
:10206800213e2800614078000080fb00110020001c
:102078000008dd00000f78002e4090000080fb0073
:10208800a13d2800614078000004e000040032000f
:10209800f01680001e007000f0168800030037005c
:1020a800c01680001e007000c01688000080fa006c
:1020b800000006000800fa00604798006e40900093
:1020c8000080fb00213e2800614f78001e80fb0045
:1020d800110020000008dd00100798006e409000f5
:1020e8000080fb00a13d2800614078000004e0006a
:1020f80022003200f11680001e00900001007000de
:10210800f016880020032000a9fb070001178000b3
:102118001e80fb000008de0000407800614060007f
:1021280040479800a0002000a1fb0700011780008d
:102138001e80fb000008de0000407800614060005f
:1021480050479800ce4090005e40900080cf5000ed
:1021580002003a004e40900029003700200320007a
:1021680093fb0700011780001e80fb000008de00bb
:10217800004078006140600021003700c1168000ef
:102188001e00900001007000c01688002003200087
:1021980087fb0700d11680001e80fb000008de00c8
:1021a800004078006140600040479800a00020008f
:1021b8007ffb0700d11680001e80fb000008de00b0
:1021c800004078006140600050479800ce40900081
:1021d8005e40900080cf500002003a004e409000d0
:1021e800070037002003200071fb0700d11680008c
:1021f8001e80fb000008de0000407800614060009f
:102208000080fa00000006000400fa002047980049
:102218002e4090000080fb00a13e2800614078001d
:102228000080fb00110020000008dd00000f78008e
:10223800401580001e007000401588009e80ea004e
:102248003016800000806000301688009e80ea000a
:102258005016800000806000501688000080fa0048
:10226800000006000200fa00004f78001e80fb0004
:10227800a13e2800614078000080fb00110020008a
:102288008008dd00301680000100700030168800dc
:102298000080fa00000006000800fa006047980075
:1022a8006e4090000080fb00a13e2800614f78003e
:1022b8001e80fb00110020000008dd0010079800b8
:1022c800411580001e009000010070004015880034
:1022d800311680001e009000010070003016880042
:1022e8002003200032fb0700411680001e80fb00ff
:1022f8000008de0000407800614060004047980018
:10230800a00020002afb0700411680001e80fb0069
:102318000008de00004078006140600050479800e7
:10232800ce4090005e40900080cf500002003a00fe
:102338004e40900007003700200320001cfb0700d8
:10234800411680001e80fb000008de000040780077
:10235800614060000080fa00000006001600fa00e4
:10236800405798000000eb0010079800e500470070
:102378006400470001017800800078004e5090000a
:1023880001ff0700de4090004e409000a0fe0700cd
:102398004e4090000bff07004006200004fb07009a
:1023a80068004700800078004e50900092fb0700bc
:1023b8000040eb00004f78002400370032c8bf000f
:1023c8000004e00026003a00e700470066004700e6
:1023d80001017800800078001e407800eafe0700be
:1023e800a0002000f2fa0700fe4090006e40900026
:1023f800b6fe07006e409000a7ff07000004e0004b
:1024080011003a006e004700800078001e407800f6
:10241800cffb0700203f280018fb07006800470093
:1024280016fb0700c0c2b30007fb07006e00470099
:1024380012fb0700f02d280010fb07001e0090007b
:102448000000e800100798001e4fe80030c7b300ee
:102458009e40780080cf5000d8ff3600010037003a
:10246800000000004e409000f9fe070049fe0700fa
:102478001e0090000080fa00000006001600fa0016
:10248800405798000000eb0010079800e50047004f
:102498006400470001017800800078004e509000e9
:1024a800b9fe0700de4090004e40900058fe07003d
:1024b8004e409000c3fe0700800c2000bcfa0700c5
:1024c80068004700800078004e5090004afb0700e3
:1024d8000040eb00004f78002400370032c8bf00ee
:1024e8000004e00026003a00e700470066004700c5
:1024f80001017800800078001e407800a2fe0700e5
:10250800fe4090006e40900070fe070040062000dc
:10251800a7fa07006e4090005fff07000004e00084
:1025280011003a006e004700800078001e407800d5
:1025380087fb0700803f2800d0fa070068004700a3
:10254800cefa070010402800ccfa07006e004700ba
:10255800cafa0700f02d2800c8fa07001e009000ec
:102568000000e800100798001e4fe80030c7b300cd
:102578009e40780080cf5000d8ff36000100370019
:10258800000000004e409000b1fe070001fe070069
:102598001e0090000080fa00000006001600fa00f5
:1025a800405798000000eb0010079800e50047002e
:1025b8006400470001017800800078004e509000c8
:1025c80071fe0700de4090004e4090003ffe07007d
:1025d8004e4090000cff0700800c200074fa0700a2
:1025e8000040eb00004f78002800370032c8bf00d9
:1025f8000004e0002a003a00e700470066004700b0
:1026080001017800800078001e4078005efe070017
:10261800fe4090006e409000fdfd0700400620003f
:1026280063fa07006e409000a2fe07000004e00075
:1026380015003a0068004700800078001e407800c6
:10264800edfa07006e004700800078004e509000b9
:102658003ffb0700803f280088fa07006800470012
:1026680086fa07001040280084fa07006e00470029
:1026780082fa0700f02d280080fa07001e0090005b
:102688000000e800100798001e4fe80030c7b300ac
:102698009e40780080cf5000d4ff360001003700fc
:1026a800000000004e409000eefe0700b9fd070054
:1026b8001e0090000080fa00000006000600fa00e4
:1026c8000000eb00100798000000eb0020079800be
:1026d8003268ef003368ef006040280067fa0700af
:1026e8004083200065fa0700f02d280063fa0700f0
:1026f8002041280061fa07000040eb00004f7800f5
:102708000900370032c8bf000004e0000b003a009f
:102718001e40780059ff07009e009000008040008e
:10272800100798001e4fe80030c7b3009e4078009d
:1027380080cf5000f3ff3600010037000000000092
:1027480032c8bf000004e000060032001042280032
:102758004afa0700d1a2a8003268ef003368ef00f8
:1027680036003700c043280044fa07001e009000d6
:102778004ffa0700f02d280040fa0700904428007f
:102788003efa07000040eb00004f780009003700d0
:1027980032c8bf000004e0000b003a001e40780079
:1027a8007eff0700ae0090000080400020079800e0
:1027b8001e4fe80030c7b3009e40780080cf50001d
:1027c800f3ff3600010037000000000032c8bf00e8
:1027d8000004e000060032008045280027fa0700c0
:1027e800d1a2a8003268ef003368ef001300370069
:1027f8003047280021fa07002e0090002cfa070025
:10280800f02d28001dfa07009e00900000482800bf
:102818006cfa07009e0090002e009000808f5000f8
:1028280003003a00cb02a800d1a2a9000300370098
:10283800a048280011fa0700d1a2a8000080fa00d9
:10284800000006000400fa000000eb0010079800e2
:102858003268ef003368ef006040280007fa07008d
:102868004083200005fa0700f02d280003fa07002e
:102878000040eb00004f78000900370032c8bf0065
:102888000004e0000b003a001e407800b3fe070089
:102898009e00900000804000100798001e4fe8003e
:1028a80030c7b3009e40780080cf5000f3ff360059
:1028b800010037000000000032c8bf000004e0003b
:1028c80004003200304a2800ecf90700d1a2a80021
:1028d8000b0037009e0090000048280039fa0700d6
:1028e8001e0090000000e00003003200cb02a800a8
:1028f800d1a2a90002003700cb02a900d1a2a800ea
:102908000080fa00000006001800fa0060579800de
:1029180071579800e70047006600470001017800fa
:10292800800078006e50900097fd07003268ef0035
:102938003368ef000000eb0010079800704b280088
:10294800cef90700fe4090006e40900030fd070071
:102958006e4090009bfd0700401f200094f907007f
:102968006e4090000080fb00a13d28006140780087
:102978000004e0000b003200111780006e40900048
:102988000080fb00223e2800624078000080fb00a7
:102998000008de00004078006140600010479800a1
:1029a8000a003700e11680006e4090000080fb00ae
:1029b800223e2800624078000080fb000008de000c
:1029c800004078006140600010479800504c280093
:1029d800aaf907001e4090000080fb00b4f9070028
:1029e800f02d2800a5f9070021c0b30000c2b300ec
:1029f8005ffc07004047980032c8bf000004e000b1
:102a080004003200d04c28009cf907003268ef001f
:102a18003368ef00604e280098f907004e40900098
:102a28000080fb00a2f90700f02d280093f90700a9
:102a38006a004700800078006e509000eef90700a9
:102a48000040eb00004f78003b00370032c8bf0061
:102a58000004e0003d003a00e90047006800470034
:102a680001017800800078001e40780046fd0700cc
:102a78009e4890000e48900014fd07001e40780004
:102a88000004e00012003a0021c0b30040c2b300c5
:102a980073fc07005047980032c8bf000004e000ec
:102aa80004003200004f280074f907003268ef0074
:102ab8003368ef009050280070f907005e409000de
:102ac8000080fb007af90700f02d28006bf9070059
:102ad8004006200036f907000e489000eefd07007a
:102ae800104798001e4090000004e00011003a00d2
:102af80070004700800078001e40780014fa070034
:102b0800305128005df907006a0047005bf90700ab
:102b1800c0c2b3004cf907007000470057f907001e
:102b2800f02d280055f907001e0090000000e8006d
:102b3800100798001e4fe80030c7b3009e40780089
:102b480080cf5000c1ff36000100370000000000b0
:102b580032c8bf000004e00004003200e051280041
:102b680046f907003268ef003368ef006e409000c6
:102b780037fd070087fc0700005328003ff90700ce
:102b88001e0090004af90700f02d28003bf90700c5
:102b98002054280039f907000080fa0000000600d8
:102ba8002c00fa003268ef003368ef000040eb00b9
:102bb800604798000040eb0070479800f0542800e8
:102bc8002ef907000040eb00004f78001001370095
:102bd800f20047007100470001017800800078008a
:102be8001e407800e8fc0700750047008000780068
:102bf8001e40780080f90700ae5090001e509000eb
:102c080083fc07001e509000eefc0700800c20009b
:102c1800e7f807000000eb00200798000040eb00f1
:102c2800104798001800370032c8bf000004e000c1
:102c38001a003a00f40047007300470001017800c9
:102c4800800078001e409000cffc0700ce50900016
:102c58003e5090009dfc070020032000d4f8070098
:102c68003e5090008cfd07000004e00003003a008d
:102c78002e0090000000e800200798001e409000f9
:102c88000040e800104798009e40900030c7b3000d
:102c980080cf5000e4ff360001003700000000003c
:102ca80032c8bf000004e0000c00320000562800c3
:102cb800f2f807001e80fb00fdf80700f02d280041
:102cc800eef807003268ef003368ef001e509000fe
:102cd800dffc07002ffc0700cc0037002e00900017
:102ce8000000e0000b00320060572800e3f80700fe
:102cf80075004700e1f80700f0572800dff80700e3
:102d08002e009000eaf80700f02d2800dbf80700f5
:102d1800bb0037006e4090000040e8006047980014
:102d28001e5090000080fb00a13d28006140780003
:102d38000004e0000a003200111780001e509000c5
:102d48000080fb00223e2800624078000080fb00e3
:102d58000008de000040780061406000090037008c
:102d6800e11680001e5090000080fb00223e2800e3
:102d7800624078000080fb000008de000040780018
:102d880061406000704f980021c0b30000c2b300da
:102d980077fb07000057980032c8bf000004e00026
:102da80004003a0031c0b30000c2b30070fb070052
:102db8002047980060582800b0f8070075004700c1
:102dc800aef8070010592800acf807001e50900014
:102dd8000080fb00b6f8070060592800a7f8070034
:102de8002e5090000080fb00b1f80700b059280071
:102df800a2f807007e4890000080fb00acf80700ae
:102e080032c8bf000004e00005003200105a280054
:102e18009af807003268ef003368ef000c003700bb
:102e2800c05a280095f807000e5090000080fb005b
:102e38009ff80700305b280090f807002e409000ac
:102e48000080fb009af80700f02d28008bf8070097
:102e58001e5090000080fb00110020000008dd00db
:102e6800804078007e40900000c060000004e000d0
:102e780063003a001e5090000080fb001100200003
:102e88000008dd0000407800fe40900000c070009f
:102e980070479800a05b280078f807001e50900043
:102ea8000080fb0082f80700f02d280073f8070067
:102eb8000040eb00204f9800470037001e5090005c
:102ec800ae489000d2fb07001e5090003dfc070062
:102ed800c012200036f807000040eb00304f980081
:102ee8002400370032c8bf000004e00026003a0082
:102ef800fc0047007b004700010178008000780053
:102f08003e48900020fc0700ce5890003e589000a4
:102f1800eefb07006009200025f807003e589000e6
:102f2800ddfc07000004e0000f003a007d004700c8
:102f3800800078003e48900005f90700a05c280052
:102f48004ef807002e4890000080fb0058f8070054
:102f5800805d280049f807007d00470047f8070012
:102f6800f02d280045f807003e4890000040e80092
:102f7800304f9800be48900030c7b30080cf500053
:102f8800d8ff360001003700000000001e509000f6
:102f98002ffc07007ffb070032c8bf000004e000d9
:102fa8000a003200d05d280034f807002e4890004f
:102fb8000080fb003ef80700f02d28002ff80700de
:102fc8003268ef003368ef00060037002e489000a3
:102fd8000040e800204f98002e489000ef4f500026
:102fe800b6ff3600f05e280024f807001e50900057
:102ff8000080fb002ef80700f02d28001ff80700be
:103008001e50900012fc070062fb07001e4fe800ec
:1030180030c7b3009e40780080cf5000ecfe3600e9
:103028000040eb00004f98000040eb00104f980064
:10303800d05f280011f807000040eb00004f78002f
:1030480011013700f20047007100470001017800c4
:10305800800078001e407800cbfb0700ae5090003f
:103068001e50900099fb07001e50900066fc070058
:10307800800c2000cef707000000eb002007980026
:103088000040eb00104798000040eb0030579800d4
:103098000040eb004057980000c0eb00404f9800fc
:1030a8000040eb00104798001d00370032c8bf00f1
:1030b8000004e0001f003a00f400470073004700d6
:1030c80001017800800078001e409000aefb0700e8
:1030d800ce5090003e5090004dfb0700200320008a
:1030e800b3f707003e509000f2fb07000004e00031
:1030f80008003a002e0090000000e8002007980021
:103108004e489000e14f400002003a009e40900077
:10311800414f98001e4090000040e800104798007a
:103128009e40900030c7b30080cf5000dfff3600cc
:10313800010037000000000075004700800078009b
:103148001e40780082f8070032c8bf000004e00083
:103158000c00320010612800c8f707001e80fb0031
:10316800d3f70700f02d2800c4f707003268ef00f6
:103178003368ef001e5090003afc070005fb07007b
:10318800c00037002e0090000000e0000b00320065
:10319800a0622800b9f7070075004700b7f70700d5
:1031a800f0572800b5f707002e009000c0f7070079
:1031b800f02d2800b1f70700af0037000e48900047
:1031c8000040e800004f9800511680001e50900003
:1031d8000080fb00a23e2800624078000080fb00cf
:1031e8000008de000040780061406000704f9800e1
:1031f80021c0b30040c2b30099fa070000579800f5
:1032080032c8bf000004e00004003a0031c0b30037
:1032180040c2b30092fa0700204798006063280074
:1032280096f707007500470094f707001059280023
:1032380092f707001e5090000080fb009cf70700e3
:10324800605928008df707002e5090000080fb0081
:1032580097f70700b059280088f707007e489000c4
:103268000080fb0092f7070032c8bf000004e000ae
:1032780005003200105a280080f707003268ef0076
:103288003368ef000c003700c05a28007bf70700ae
:103298000e5090000080fb0085f70700305b280087
:1032a80076f707002e4090000080fb0080f70700ab
:1032b800f02d280071f707001e5090000080fb00d9
:1032c800110020000008dd00804078001e489000b2
:1032d80000c060000004e00067003a001e50900043
:1032e8000080fb00110020000008dd00004078008d
:1032f8009e48900000c07000104f9800406428005d
:103308005ef707001e5090000080fb0068f707007a
:10331800f02d280059f707000040eb00504f9800a7
:103328004b0037001e509000de489000e7fa070077
:103338001e509000b4fb0700c01220001cf70700c5
:103348000040eb00604f98002800370032c8bf00eb
:103358000004e0002a003a00410220008e8040006c
:10336800300220000e004000010178008000780043
:103378006e48900004fb0700ce6090003e6090000d
:10338800a3fa07006009200009f707003e609000d3
:1033980048fb07000004e00011003a00500220003a
:1033a8000e004000800078006e48900092f70700f9
:1033b8007065280031f707005e4890000080fb0028
:1033c8003bf70700806628002cf707005002200012
:1033d8000e00400029f70700f02d280027f7070006
:1033e8006e4890000040e800604f9800ee4890005a
:1033f80030c7b30080cf5000d4ff3600010037003b
:10340800000000001e50900096fb070061fa0700bc
:1034180032c8bf000004e0000a003200d06628006d
:1034280016f707005e4890000080fb0020f70700b1
:10343800f02d280011f707003268ef003368ef001d
:10344800060037005e4890000040e800504f9800a2
:103458005e489000ef4f5000b2ff36002068280009
:1034680006f707001e5090000080fb0010f70700c9
:10347800f02d280001f707001e50900079fb070087
:1034880044fa07001e4fe80030c7b3009e4078009a
:1034980080cf5000ebfe360030692800f7f60700b1
:1034a8006e4090000080fb0001f70700506a28007a
:1034b800f2f607000e4890000080fb00fcf60700bb
:1034c800f02d2800edf607000080fa000000060045
:1034d8002600fa00201798002e10900090407800df
:1034e80040c5b30080cf500009003a0010c0b300b7
:1034f80031e8b700d1c2a800cb02a900d1a2a90027
:10350800d0fc0700d1c2a9003168ef00a80137003c
:103518002e1090009040780080c5b30080cf5000f6
:1035280009003a0010c0b30031e8b700d1c2a800c2
:10353800cb02a900d1a2a90060fc0700d1c2a90052
:103548003168ef009a0137002e1090009040780003
:1035580040c4b30080cf500054003a000040eb0054
:10356800104798000040eb00204798002e1090006c
:103578000000e80090407800c0c2b30080cf50003f
:103588003b003a002e1090000080e80020079800c9
:103598000d0037001e4090006a00b9000000780056
:1035a800804078002e0090001040780080c04000d5
:1035b80000cdb30000c04000104798002e009000d6
:1035c8000000e800200798002e0090009040780046
:1035d800f0c2b30080cf5000050034002e009000e8
:1035e8009040780090c3b30080cf5000e9ff3400ca
:1035f8002e00900090407800c0c2b30080cf5000e9
:103608001b003a002e0090000000e80020079800f8
:103618000d0037002e4090006a00b90000007800c5
:10362800804078002e0090001040780080c0400054
:1036380000cdb30000c04000204798002e00900045
:103648000000e800200798002e00900090407800c5
:10365800f0c2b30080cf5000050034002e00900067
:103668009040780090c3b30080cf5000e9ff340049
:103678009e40900030c7b30080cf50000200360053
:103688000040eb00104798002e409000ef4f50008c
:10369800020036000040eb0020479800ae40900042
:1036a8001e40900098fc0700410137002e10900042
:1036b8009040780030c5b30080cf500029003a0010
:1036c8002e1090000000e80090407800c0c2b300bf
:1036d80080cf500023003a002e1090000080e800b0
:1036e800200798000040eb00004f78000a003700e0
:1036f8001e81fb002e00900090407800408320003f
:1037080000004100014878001e4fe8002e0090009c
:103718000000e800200798002e0090001040780074
:103728000004e000030032001e407800f64f50000d
:10373800efff36009e80fb004083200000804000a1
:103748008040eb0001487800a06a28004bf607008b
:103758004083200049f60700f02d280047f60700af
:10376800130137002e1090009040780090c4b300e9
:1037780080cf50003d003a00206b28003ff607003c
:10378800306c28003df6070000c2b30030479800af
:1037980013003700f06c280038f607003e40900010
:1037a80073f60700c0c2b30027f607003e4090003a
:1037b8009ef707000004e00002003200d06d2800e8
:1037c80001003700106e28002cf60700f02d2800a5
:1037d8002af607003e4090000040e8003047980075
:1037e800be40900070c2b30080cf5000e9ff3600a1
:1037f800606e280021f6070000c2b3003047980029
:1038080013003700206f28001cf607003e40900088
:1038180057f60700c0c2b3000bf607003e40900001
:1038280074f807000004e00002003200d06d2800a0
:1038380001003700106e280010f60700f02d280050
:103848000ef607003e4090000040e8003047980020
:10385800be40900070c2b30080cf5000e9ff360030
:103868000070280005f60700d10037002e109000e0
:103878009040780060c5b30080cf500003003a0044
:1038880000712800fdf50700c90037002e109000d0
:103898009040780000c5b30080cf500003003a0084
:1038a800f0712800f5f50700c10037002e109000d0
:1038b80090407800a0c4b30080cf500002003a00c6
:1038c800b7fc0700ba0037002e109000904078002f
:1038d80070c4b30080cf50004a003a0060722800dc
:1038e800e6f507000040eb00604798003f0037000e
:1038f800ee4090000040eb0074f907000040eb0038
:1039080041fa0700800c2000a9f507000040eb00f1
:10391800704798002400370032c8bf000004e00058
:1039280026003a00ed0047006c00470001017800ce
:10393800800078007e40900093f90700de489000f0
:103948004e48900032f907002003200098f5070040
:103958004e489000d7f907000004e0000f003a0035
:103968006e004700800078007e40900022f6070035
:1039780030732800c1f507006e4090000080fb00fe
:10398800cbf50700c0732800bcf507006e004700a0
:10399800baf50700f02d2800b8f507007e40900022
:1039a8000040e80070479800fe40900030c7b30020
:1039b80080cf5000d8ff360001003700000000001b
:1039c8000040eb0027fa0700f2f8070032c8bf00f2
:1039d8000004e000020032003268ef003368ef00b4
:1039e8006e4090000040e800604798006e409000ec
:1039f800ef4f5000beff3600107428009ff50700f7
:103a08006b0037002e1090009040780060c4b3001f
:103a180080cf500066003a00c074280097f5070070
:103a280030c3b300004f98005b003700f500470033
:103a38007400470001017800800078000e4890006b
:103a480051f90700de5090004e509000f0f8070042
:103a58004e5090005bf90700800c200054f50700d9
:103a680078004700800078000e489000e2f50700d3
:103a78000000eb00500798000040eb00104f980042
:103a88002b00370032c8bf000004e0002d003a00c8
:103a9800f7004700760047000101780080007800b1
:103aa8001e48900038f90700fe5090006e509000b4
:103ab80006f90700200320003df507006e5090002e
:103ac800f5f907000004e00016003a007e00470000
:103ad800800078001e4890001df60700a075280099
:103ae80066f507007800470064f50700407628006f
:103af80062f507001e4890000080fb006cf5070087
:103b0800104028005df507007e0047005bf50700c0
:103b1800f02d280059f507005e0090000000e8002d
:103b2800500798001e4890000040e800104f980089
:103b38009e48900030c7b30080cf5000d1ff3600b8
:103b480001003700000000005e0090000000e00067
:103b580006003a00a075280048f5070078004700dd
:103b680046f507009076280044f5070032c8bf00e4
:103b78000004e000020032003268ef003368ef0012
:103b88004e50900032f9070082f807000e48900066
:103b980000c0e800004f98008e48900010c4b300a1
:103ba80080cf5000a1ff36004077280033f507008a
:103bb8000080fa00000006000200fa000080eb0016
:103bc800401588000080eb00301688003016800011
:103bd8000080a10030168800501680000080a100e7
:103be80050168800f01f2000c01688000080eb00e7
:103bf800f016880061168000f0ff29000080600040
:103c08006016880081168000f0ff2900008060009f
:103c1800801688009116800030ff2f000080600019
:103c280090168800b116800030ff2f0000806000d9
:103c3800b0168800ebf40700faf40700a000200093
:103c4800c3f4070018f60700b9f607005000200073
:103c5800bff4070020f8070032c8bf000004e000e6
:103c6800020032000078280004f5070049f8070030
:103c7800800c2000b6f4070060792800fff40700e4
:103c880000712800fdf4070041072000507a280041
:103c98004cf507000040eb00004f78000d0037009e
:103ca800cb02a800d1a2a800d1c2a800d642a80081
:103cb80060092000a6f40700cb02a900d1a2a90040
:103cc800d1c2a900d642a90060092000a0f40700cb
:103cd8001e4fe8001e407800e24f5000f0ff36000b
:103ce800030037000000000001003700000000005a
:103cf800c0108000620060000000e0000100320097
:103d08001822a900c0108000610060000000e000d7
:103d180022003200e0108000104798001e409000fa
:103d2800ed4f5000030032001e409000ea4f500053
:103d38000d003a0030c8bf000004e0001700320050
:103d480030c8bf008080fb00008020000080400059
:103d58008040eb000148780000802000dcfd07006f
:103d68003068ef000d003700018320009140780093
:103d7800e0c2b30080cf500008003e0030c8bf004a
:103d88000081fb0001802000810041001e4190005d
:103d9800824878000040e80030e8b700d11680007b
:103da80000102000008060000000e000cdff3a0015
:103db800e001200066f40700d11680000010200002
:103dc800008060000000e000c8ff3a00a07a2800e8
:103dd800bffd070000000000d11680000010200081
:103de800008060000000e000fbff3200e0012000de
:083df80057f40700beff37007d
:020000040000fa
:103e0000340800001c00000002000000534e2d008a
:103e10003030300030303000000000000000000082
:103e2000000000000000000000000000ffffff0095
:103e3000ff00000000080000340000000000000047
:043e4000000000007e
:020000040000fa
:0200000401f009
:040000000683000073
:020000040000fa
:0200000401f009
:040004003f000000b9
:020000040000fa
:0200000401f009
:04000800338700003a
:020000040000fa
:0200000401f009
:04001400ffffff00eb
:00000001FF
